:10000000D9C00000F4C000000C947110F0C00000D2
:10001000EEC000000C946B10EAC00000E8C00000C5
:10002000E6C000000C947710E2C00000E0C00000C1
:10003000DEC00000DCC000000C942F10D8C000000F
:10004000D6C00000D4C00000D2C00000D0C0000064
:10005000CEC00000CCC00000CAC00000C8C0000074
:10006000C6C00000C4C00000C2C00000C0C0000084
:10007000303237332E32372D30372D323032340094
:100080000001050414101115000001000200030016
:10009000040005000600070009000A000C000E001D
:1000A00011001300160019001C0020002400290074
:1000B0002D00320038003E0045004C0054005C002A
:1000C00065006E00790084008F009C00A900B800D4
:1000D000C700D700E800FB000E01230139015001E1
:1000E000680182019E01BA01D901F9011B023E0299
:1000F00064028B02B502E0020E033D037003A40309
:10010000DB03150451049004D10416055E05A9050E
:10011000F70548069D06F5065107B10714087C0847
:10012000E7085709CB09440AC10A430BCA0B560C0E
:10013000E70C7E0D190EBB0E620F0F10C1107B1164
:100140003A120013CC13A0147A155C164517351813
:100150002D192D1A351B451C5E1D801EAA1FDD2082
:100160001A226023B02409266D27DB28532AD72BB7
:10017000652DFF2EA43054321134DA35AF37913962
:10018000803B7D3D863F9E41C343F74539488A4ABF
:10019000EB4C5A4FDA5169540957B9597A5C4D5FA3
:1001A000316227652F68496B776EB7710B7573786D
:1001B000EF7B807F11241FBECFEFD4E0DEBFCDBF29
:1001C00011E0A0E0B1E0E2E1F8E202C005900D929A
:1001D000A438B107D9F722E0A4E8B1E001C01D922C
:1001E000A132B207E1F70E94A2100C94DD1308CFF0
:1001F000F89498ED9FBD83BF78940895482F362FCB
:10020000272FEAEEF1E090E0808181110DC0892F67
:1002100090E063E070E00E947913FC01E651FE4F2C
:1002200040833183228308959F5F3396903161F735
:100230000895BC0180911C02E1CF10921C02109223
:100240001B0210921A0281E08093B70108950F9368
:100250001F93CF93C82F08EA17E0C15020F4CF9125
:100260001F910F91089582E0C3DFC8010197F1F754
:1002700080E0BEDFF2CF86E884B9E1E6F0E080817D
:100280008260808388E082B91092E6011092E701D3
:100290008FEE83B90895E0910601F0910701319640
:1002A000FB70F460F0930701E09306018091BA01BE
:1002B0008B5A8093BA01E4918091BA018E0F089510
:1002C000811521F0813031F0829A05C08298929890
:1002D0008A9808958298929A8A9A08950F931F9304
:1002E000CF93DF9300D00F92CDB7DEB7209180017E
:1002F000309181014091820129833A834B83FE0131
:10030000319640E050E0682F70E0A1E0B0E09B0142
:10031000042E02C0359527950A94E2F7922F937028
:1003200021918D0102C0000F111F2A95E2F798015B
:10033000911529F09130D1F080B3802B1BC080B390
:100340002095822380BB82B3822382BB81B3822328
:1003500081BB4E5F5F4F46305105C9F60F900F903D
:100360000F90DF91CF911F910F91089590B3802F3F
:100370008095892380BB82B3822B82BB81B3822B81
:10038000E7CF811511F082E0A9CF81E0FDCF811583
:1003900011F08AE0A3CF85E0FDCF811511F088E050
:1003A0009DCF84E0FDCF811511F088E297CF84E1E5
:1003B000FDCF811511F080E291CF80E1FDCF811555
:1003C00011F082E28BCF81E1FDCF811511F08AE23D
:1003D00085CF85E1FDCF81E00895CF93C82F80912F
:1003E000BD01811109C0C11539F080913401C817D0
:1003F00018F4F3DF82E02BDF8091BF0181110BC085
:100400006DDF91E0C11101C090E081E0C73408F4D4
:1004100080E0890F55DFC11123C08AB78F778ABF6B
:100420001092200210921F0210926D0010926C0028
:1004300010926F0010926E00689848988091BD01EC
:100440008C138093BC01C093BD01C093BB0182E0BB
:10045000C23020F081E0CF3F09F480E0CF91C8CED8
:10046000E091BE01F0E0EE0FFF1FEE0FFF1FE05A1C
:10047000FE4F0190F081E02D8FEF8C0F0995DECFBC
:10048000E82FF0E02091BD012150330B82171306B5
:1004900019F1EE0FFF1FE857FF4F8591959190934B
:1004A000200280931F02880F892F881F990B919536
:1004B00080931E02992790936D0080936C008AB7F9
:1004C00080688ABF8091BD01811104C010926F00C5
:1004D00010926E00689A489A0895E82FF0E0EE0FA7
:1004E000FF1FE857FF4F4591559120911F02309112
:1004F0002002932F969580E02417350778F42F5F1C
:100500003F4F8F5F9817C0F73093200220931F0250
:1005100081E02417350709F080E00895421753075A
:1005200080F721503109EDCFCF93DF9300D000D079
:1005300000D0CDB7DEB72091D8013091D90128582D
:10054000384079F090910C01843069F4609318017F
:100550000F900F900F900F900F900F90DF91CF9111
:10056000089592E0F1CF611599F3823019F427E9EB
:10057000261B622F26E0E5E3F1E0DE0111960190F3
:100580000D922A95E1F7FE013196E80FF11DE80F73
:10059000F11D32970190F081E02DE90FF11D60838C
:1005A000D7CF813011F4609334010895CF92DF9258
:1005B000EF92FF920F931F93CF93DF93EC01609123
:1005C0000C0190911701E62F9111E2E0F0E0E45F59
:1005D000FE4F228120930901858180930801E92F34
:1005E000F0E0E45FFE4F3185422F50E0611581F06D
:1005F000313071F4480F511D55954795842FDF9187
:10060000CF911F910F91FF90EF90DF90CF900895C1
:10061000C417D507A4F18C171D068CF3611102C015
:100620008C2FEDCF821B432F4150550B7A01C82EE2
:10063000D12CC601BA010E94AA136093B401822F83
:1006400000E010E040E06695E62FF0E04317B9F2D5
:10065000C801B7010E949613822F860F0C0D1D1D35
:10066000A82FB0E0BE01681B710977FF03C0BD0170
:100670006C1B7D0BE617F70714F64F5FE7CF822F51
:10068000BECFECE0F1E0868580930A018389808B00
:100690008093BE0108958091AE01811551F0909133
:1006A000BD019093B3018093AD011092AC01109203
:1006B000AB0108950F931F93CF939B014091DC01F1
:1006C0009FEF940F903938F480E008DE80E0CF91FE
:1006D0001F910F91F5CDE82FEF709091AF0191111F
:1006E00029C0C82FC295CF708091320190E053E0AD
:1006F000880F991F5A95E1F768177907E0F4509130
:10070000B60158171906BCF45115A9F081E0909173
:10071000BC019F3008F480E091E0C23009F090E025
:10072000892BC1E0C80F8091BF01811509F463C016
:1007300080E03AC0C2E0E73010F4F0E016C0E730E5
:10074000B9F40091890110E00F5F1F4FA4DD65E04F
:100750000E948A139801290F311DC90166E070E0DB
:100760000E94AA1380938901FC01EF57FF4F28C014
:10077000E830C9F68091BF01811113C083E090E099
:1007800082239323892B51F48091890190E0019673
:1007900066E070E00E94AA1380938901E0918901CC
:1007A000CCCF8FE0ECCF8E5FE82FF0E0E25BFE4F26
:1007B00090814917C0F73197E081F0E0E058FF4F92
:1007C000E491C33071F48091880190E0019663E177
:1007D00070E00E94961380938801855C9E4FDC0137
:1007E000CC91C11599F0C13011F0EE0FC2E08E2FFF
:1007F00075DD8C2F6CCFC9019695879563E070E00D
:100800000E949613FC01EE0FFF1FAFCFE0E0EFCF89
:10081000CF93C091BD0182E38C0F873908F080E04F
:10082000DCDD83E014DD8C2FCF91D7CDCF93C09149
:10083000BD0180E0D2DD83E00ADD8C2FCF91CDCDEC
:1008400081E00895611569F0813099F480912F015C
:100850009091DA01891B860F80932F0182E08093AB
:100860000B0180912E01873418F086E480932E01CD
:100870000895635E60932E01F4CF60933301089571
:1008800040911D0150911E01815021E030E0F9019D
:1008900002C0EE0FFF1F8A95E2F7CF01611539F014
:1008A0004E2B592B50931E0140931D0108958095A6
:1008B00048235923F7CFCF93DF938CE091E09093B7
:1008C000B9018093B80182E0C2DCF894C0E0D0E0C6
:1008D000E091B801F091B901EC0FFD1F6081219604
:1008E000CE010E94CB13C932D10591F765EA80E0B1
:1008F00090E00E94CB137894DF91CF9108951092ED
:10090000E80180B191B12091BA01829586958695D2
:100910008370990F990F890F820F8093BA0180918C
:10092000DD01811509F444C01092DD018091E601DA
:100930009091BF01911529F01F981092E901109232
:10094000E60181115BC080910B01811591F18091CD
:10095000E2019091E3019093DF018093DE016091C9
:100960002D016750262F220F6AE171E00E94961335
:10097000620F6093DC018091A2018115B9F1815071
:100980008093A2018091BF01811109C08EE884B9D2
:1009900081E08093E6011092E7018FEE83B98091A8
:1009A0000B01811529F080910B01815080930B017F
:1009B00008952091BF018091DE019091DF01211502
:1009C00071F22091E2013091E30143E036952795E1
:1009D0004A95E1F7280F391F53E0969587955A9568
:1009E000E1F7A901481B590BCA01B5CF613950F68F
:1009F00060E070E084E002DC85E0C2CF813079F60F
:100A000080910B01811541F08091E4019091E50105
:100A10009093E1018093E0018091E0019091E101E8
:100A2000A0912F019C01B6E036952795BA95E1F784
:100A30000A2E000CBB0B2A0F3B1F2E503140309367
:100A4000DB012093DA0125E0969587952A95E1F759
:100A500020910B0121113CC020919101E22FF0E087
:100A6000EE0FFF1FEE56FE4F40815181BC01641B0B
:100A7000750BAB01918380832F5F277020939101C9
:100A8000660F771F660F771F680F791F80912E0101
:100A900090E08A1B9B0B825F9E4F880F991F681BFB
:100AA000790B83E016161706A4F5615071098A9533
:100AB000C9F7161617060CF045C057FD62C08091A5
:100AC0009001181664F5861B80939001D4DB67CFE4
:100AD0009093930180939201909395018093940158
:100AE0009093970180939601909399018093980138
:100AF00090939B0180939A0190939D0180939C0118
:100B000090939F0180939E019093A1018093A001F7
:100B1000A3CF6115710559F26F5F7F4FC8CF660F84
:100B2000771F653071055CF06350710975956795A5
:100B300088E1861B8093900185E060DBC7CF61E090
:100B400070E0F6CF6C3F8FEF7807DCF457FF19C0E9
:100B50008091900187FF02C08450B5CF84EE861B40
:100B6000809390018091DC01833908F4AFCF8CEF42
:100B70009FEF9C01261B370BB9017595679586E0A1
:100B8000DCCF8091DC01823908F4A0CF60E070E016
:100B900087E0D3CFCF93DF93C82F8091BE018C170E
:100BA00051F0D091BD0180E018DCC093BE018D2FC3
:100BB000DF91CF9112CCDF91CF910895813019F45C
:100BC00010921A010895823019F460931B01089560
:100BD000833019F4609319010895843019F46093F7
:100BE0000D010895853011F460932101089582303C
:100BF00019F4609332010895611160932D010895F5
:100C00008093B5019091BD01282F291B981710F0F2
:100C1000292F281B3091A501311106C030912101E7
:100C2000311569F0223058F08093A60184E080935A
:100C3000A40181E08093A5019093A7010895CDCBF5
:100C4000EF92FF921F93CF93DF937C01D62FC72F94
:100C5000142F8091D8019091D901892B31F0E09126
:100C6000D801F091D90189E00995F092D901E0927B
:100C7000D801EF2841F0E091D801F091D9016D2F12
:100C80007C2F812F099581E08093B701DF91CF916F
:100C90001F91FF90EF900895282FCB01283039F451
:100CA0001092AE011092AC011092AB010895213B5D
:100CB00059F48091AE0181508330B8F583E0809380
:100CC000AE018093AD01EECF253BA1F46EE370E061
:100CD0000E949613892B49F58091AE018A3F28F531
:100CE0008B5F8093AE018093AD011092AC011092A6
:100CF000AB018ECD2130C9F48091AB019091AC0154
:100D0000019688382EE0920728F49093AC018093E6
:100D1000AB0108951092AC011092AB018091AE012D
:100D2000811519F081508093AE010895EF92FF92E2
:100D30001F93CF93DF931091EA01111106C0DF9149
:100D4000CF911F91FF90EF900895E090EB01F0900C
:100D5000EC01C091C701C1500C2E000CDD0BC7FD8A
:100D60000EC0FE01EE0FFF1FE853FE4F0190F08111
:100D7000E02DB701812F099521978111F0CFEAEE7F
:100D8000F1E083818083848195819283818333968E
:100D900082E0E731F807A9F71092170210921902C2
:100DA00010921802C8CFE091C701E11529F0E15077
:100DB000E093C701E11106C080E090E04AE060E006
:100DC00070E03ECFE150FF0BEE0FFF1FE853FE4FE8
:100DD00080819181F3CF883039F41092A301109271
:100DE0008A0180E0FADA0CC08130F1F490918A0136
:100DF000911108C06032710518F080938A011DDAE4
:100E000080E00895913071F46B3B710520F082E031
:100E100080938A01E6CF61FB882783F98E5E672B7A
:100E200079F3E0CFC0DFECCF813859F481E08093D3
:100E30008A018091A3018F5F8093A301FED98BE487
:100E4000D1CF813EE9F681E080938A018091A301B0
:100E5000865FF2CF2091C701283068F4E22FF0E0DE
:100E6000EE0FFF1FE853FE4F808391832F5F209387
:100E7000C70148E0E5CE08950F931F93CF93DF930A
:100E8000D82FC92F8B018FDFB8018D2F9C2FDF91B9
:100E9000CF911F910F91DECF282FCB01213C39F448
:100EA00060E070E087EF9BE0E7DF80E00895223CA0
:100EB00029F460E070E08EE699E0F6CF213B41F442
:100EC0006EE370E00E949613892B79F7A1DCEDCFD9
:100ED000213E49F46EE370E00E9496136F5F6093C9
:100EE0002C01E9DCE2CF81E00895843011F5809196
:100EF000D8019091D9012EE08C38920731F469E144
:100F000070E08AE999E0B8DF0DC08A59994061F430
:100F10009091BD01923040F0892F869596959695D7
:100F2000890F6EDE80E0089560E070E087EF9BE05F
:100F3000EACF81E00895813C39F460E070E087EF0A
:100F40009BE09ADF80E00895823C29F460E070E045
:100F50008CE497E0F6CF81E00895883049F0813C39
:100F600049F41092A80160E070E087EF9BE084DF15
:100F700080E00895823C49F48091A80190E00196B8
:100F8000817099278093A801F3CF81E00895813C77
:100F9000E1F48091AA0160910A01813031F0823040
:100FA00051F481E090E002DB682F70E08AE999E07B
:100FB00063DF80E00895833019F466E970E0F6CFCE
:100FC00060E070E087EF9BE0F3CF813EC9F380E003
:100FD00004DA82E083D981E073D9EBCF1F93CF93FA
:100FE000DF93162FD72FC42FF9018830C9F48091D1
:100FF000BE0180938C0110928B0180E0EED980912C
:10100000C001811158C080918B018F5F80938B014B
:1010100060E070E08BEE96E0DF91CF911F911ACFE8
:10102000982F907F903B39F580918B01481708F1FC
:101030008150883040F49091B001911521F0909149
:10104000BE018913A7DD812F9D2F6DE570E00E9401
:101050009613069761F480918B018F5F80938B01CB
:10106000C81748F188E3DF91CF911F91B6C982E19B
:10107000FACF80E0F8CF903E51F480918B0181153A
:1010800071F0481760F080918C0184DDC1CF8A3007
:1010900051F46091A30180918B0109950CDCDF91E3
:1010A000CF911F9180CE893031F480918C01DF91F6
:1010B000CF911F916FCDDF91CF911F91089591E056
:1010C0009093B00120E434E048E088DF1092B00152
:1010D00080E008952DE334E041E080DF80E0089572
:1010E00022E234E042E07ADF80E0089527EF35E045
:1010F00042E074DF80E0089521ED32E041E06EDFF0
:1011000080E008952EED35E045E068DF80E0089549
:1011100024E932E044E062DF80E0089524E932E02F
:1011200043E05CDF80E00895833C29F55091BE01E7
:1011300060911D0170911E01952F48E0892F90E06C
:1011400001969C0127703327922FFB01022E02C0CB
:10115000F695E7950A94E2F7E0FD02C04A9571F72B
:101160005917A9F0822F16DD8091BE0180931C01D2
:10117000A2DB80E0089590911701911108C0893B8E
:1011800031F460E070E08FE598E064DEF2CF81E05A
:1011900008950F931F93CF93C82F8B01883CF0F4D1
:1011A000833B98F48330B1F18830F1F0813021F144
:1011B00080911701811190C0CA3B09F08DC060E099
:1011C00070E08AE698E046DE20C0EDE4E80FE53105
:1011D00078F7F0E0E152FC4E0C94BD13873E41F7E6
:1011E0001092AF0168DB11C01092B60160E070E0B0
:1011F000809131015FDADCCF6931710530F0809385
:10120000BF01B8018091310155DA80E0CF911F9183
:101210000F9108958091B6018F3F19F08F5F8093F1
:10122000B60180911A01811561F380911B0190E054
:1012300062EC71E00E9479130817190710F321DAA4
:10124000E0CFE6DA60E070E087EF9BE015DEDDCF0F
:1012500060910A0170E08AE999E0F8CFE7DA10922C
:101260001C0261E070E0F7CF66E970E0F4CFCB01DB
:101270006EE370E00E949613892B09F099CF60E02D
:1012800070E083ECCF911F910F914ECF909131017F
:10129000892F807F805F80739F70892B80933101BD
:1012A00060E070E007DA07DBB3DAAFCF81E080936C
:1012B000AF01CB018F739927892B09F0A2CF209121
:1012C0003101822F8F708F5F6BE00E948A13207F25
:1012D000922B9093310195CF81E098CFCF93C0911D
:1012E0001701C11125C0813C41F460E070E087EF37
:1012F0009BE0C2DD8C2FCF910895823C29F460E001
:1013000070E08AEC9BE0F5CF833C51F480912001A2
:1013100090E001968770992780932001CCDAEACF7C
:10132000873B31F460E070E086E798E093DDE2CF40
:10133000C1E0E0CF9F92AF92BF92CF92DF92EF9247
:10134000FF920F931F93CF93DF93C82F8B01809150
:101350001C018093BE01A0900901F09008018091CA
:101360000C01B090B401811102C0BB24B3948091F0
:101370001701E0900D018111E0901801E11409F4CA
:101380003FC041E0E41621F080910A018F15C0F1C1
:10139000D6E99090AE01B8018C2F7EDC8091AE0131
:1013A000811581F1911004C09091BD019093B3011A
:1013B000C83081F1CA3089F51092AA0100910A0162
:1013C00010E0A016110628F40F15110510F4009373
:1013D0000A0186E90639110511F0C801E7D810DCC9
:1013E00081E08093050180E0DF91CF911F910F9103
:1013F000FF90EF90DF90CF90BF90AF909F900895B7
:10140000DF2DC7CF9114A1F260E070E087EF9BE081
:1014100033DDE9CF1092AA01D4CFC13C29F5F09079
:10142000BD0156E9F51217C08091B201813099F4DF
:101430001092B20180910A01E3DB809117018111C2
:10144000A7C1C33B09F066C1012B69F6E110D6E9DB
:101450008D2FD6DBC8CF80E090E0A8D8F812D4CF8B
:1014600081E08093B101D0CFC23C61F48091BD0195
:101470008D1708F045C08D2FC3DB81E08093B2014A
:101480000AD9B1CFC43C41F480E00E94ED0160E094
:1014900070E089EC98E0BCCF9FE49C0F923008F09C
:1014A0005CC080910C01811579F1C80168E170E0A0
:1014B0000E949613892B09F096CF8091A501811186
:1014C00092CF2091BD010115110549F5C23B09F5E7
:1014D0008FEF80930501C091BD01809105016B2DB7
:1014E00070E0082E000C990B0E9479138C0F911D4F
:1014F0005DD880930A01C81719F08F1101C096D9E1
:1015000080910A017DDBBCCF6091140170E0C801BD
:10151000CFCF2F15E8F6A216F0F281E0DACFE091F6
:101520001401F0E0CF0166E371E00E9479138017A7
:10153000910710F42F1560F6CF016CE672E00E945F
:1015400079138017910738F6A21628F261D960E066
:1015500070E089EC98E090DCBECF9FE19C0F923068
:1015600020F48091050181953CCFC13009F087C0FE
:101570000932110511F4C0930501811581F1E09143
:10158000B301F0E090E0BF010E9479136C0120915B
:10159000AD0130E0B9010E94AA13462FC6018E1B8F
:1015A0009F0BB9010E94AA13242F261B8091AB0127
:1015B0009091AC016EE370E00E949613822F90E050
:1015C0000E9479136CE370E00E949613842F861BAF
:1015D000461301C081E08093BB018093B501C091A7
:1015E000BB012091BD014C2F421B550BCA016091DC
:1015F0008D0170918E016F5F7F4F70938E016093AC
:101600008D01009709F4EFCE3CF440E051E023381F
:1016100028F040E450E002C040E052E05695479583
:1016200097FD0196959587950097C1F7461757073F
:1016300008F0D9CEC217F8F4CFEFC20FE091BE0187
:10164000F0E0EE0FFF1FEE0FFF1FE05AFE4F02808B
:10165000F381E02D8FEF8C0F0995811539F0D09132
:10166000BB018C2F0E94ED01D093BB0110928E0123
:1016700010928D01B8CE2C1708F7C1E0DECFC5302F
:1016800081F48091BD01833308F4ADCE90E0801BDE
:10169000910B87399105ACF086E990E08093BB010E
:1016A000A2CEC630A1F48091BD012091B501821770
:1016B00008F099CE080F111D822F2017110674F320
:1016C000C8018233910554F782E390E0E7CFC73039
:1016D00069F49091BB018091BD01891710F48F5F6F
:1016E000DDCF981708F07FCE8150D8CFC63C09F0E7
:1016F000A4CE81E090910C01911180E080930C01C7
:10170000DAD894D88091BD0190E00E94D6028093EF
:101710000A01F8CEC33E19F480910A019ACEC33C67
:10172000E1F48091BD0190910901891308C082E024
:101730008093AA0162E070E087EC97E069CE863979
:1017400031F483E08093AA0163E070E0F5CF81E09B
:101750008093AA0161E070E0EFCF60E070E08EE876
:1017600098E0C73B99F0CA3C59F48091BD01809341
:101770001A018091BE0180931F019DD849D833CEB4
:10178000CA3B31F460E070E082E898E063DB2BCE86
:1017900081E02ACE813C39F460E070E087EF9BE085
:1017A0006BDB80E00895823C29F460E070E08BE917
:1017B00097E0F6CF873B31F460E070E080E798E097
:1017C00049DBEFCF81E0089590912101911569F0F7
:1017D0008093A60188E08093A40181E08093A50115
:1017E0008091BD018093A70108950C94ED01CF93E2
:1017F000DF93EB018830F1F48091B1018130B9F4CD
:1018000080E00E94ED011092B1018091A501C82BEA
:101810001092B60180911C018093BE011092AE011E
:1018200081E0CD2B81F080E0DF91CF91089580E0C1
:10183000CBDFEBCF813051F469317105A0F390918A
:10184000A5019111F0CF8093BF01EDCF833059F501
:101850008091B6018F3F19F08F5F8093B601809120
:101860001A01811559F080911B0190E062EC71E042
:1018700040D7C817D90710F00E944103BE018091DC
:1018800030010E945A0380913301811561F290E08A
:1018900062EC71E02ED78C179D0728F660E070E0AF
:1018A00089EC98E016C0813BB1F481E090E00E94A1
:1018B000D6028ADF809119018111B5CF80910C0188
:1018C000811103C0689708F4AECF61E070E08AE947
:1018D00099E0D2DAA8CF813EC1F3813839F4809102
:1018E0000A0190E00E94D6026FDF9DCF60910A014D
:1018F00070E0813C61F3823B91F41092B6018091DB
:101900001701811107C080910D01811106C086E980
:1019100090E0E8CF80911801F8CF86E9E5CF823ECC
:1019200011F480E0E1CF66E970E0823C81F2833916
:1019300019F41092A501F5CF853C51F4809117015F
:10194000813009F471CF60E070E08EE699E0C1CF9C
:10195000843C41F480911701813009F465CF0E94E5
:1019600008049CCF8D3B41F4F89488ED8FBD88E846
:1019700080BF7894A895FFCF8F3C51F480911701D8
:10198000813009F451CF60E070E080E294E0A1CFB3
:101990008A3BA1F4209709F052C08091170181156C
:1019A00039F00E940804109217010E945B043BCF9B
:1019B00060E070E088E898E04DDA35CF833B51F481
:1019C00080911701813009F42FCF60E070E08CE83E
:1019D0009EE07FCF873C99F490913001892F807FE2
:1019E000805F80739F70892B8093300160E070E08E
:1019F0000E945A030E945B040E94080414CF873B94
:101A0000C9F481E08093AF01CE018F739927892BB0
:101A100059F420913001822F8F708F5F6BE07AD65E
:101A2000207F922B90933001BE01809130010E9463
:101A30005A03F9CE873E19F41092AF01B6CF9091B8
:101A4000170191111AC08A3C31F40E94080481E008
:101A500080931701AACF833C39F41092AA0160E069
:101A600070E087EC97E035CF893B39F4CD2B29F432
:101A700060E070E08CE798E09FCF81E0D5CE0F93D7
:101A80001F93CF931092C20180911A0290911B0272
:101A90009C012F5F3F4F88279078822B932B909348
:101AA0001B0280931A022091C0019FB19038880BCD
:101AB00081958093C0012817C1F01092BF018093D7
:101AC000C00180911C0297FD31C0982F90698F70E2
:101AD0008F3009F09F5F90931C0280E090E00E949D
:101AE000190110921B0210921A0200911A02109111
:101AF0001B028091BF01811539F1B80183E00E947A
:101B0000FE0014D90134110520F00F701127012BAC
:101B100099F510928F0181E08093E9010E943B01C9
:101B20008FEE83B981E08093DD0120C0982F9F7EE6
:101B300085FD08C0906890931C0280911A029091D4
:101B40001B02CDCF906CF7CFC0911C028C2F807FF1
:101B5000803BB1F460E070E081E00E94FE00C801CB
:101B60000E94190180918F018115D1F280918F011E
:101B70008F5F8F7180938F01CF911F910F91089587
:101B8000B80181E00E94FE00C4FF0FC0C5FDE7CF91
:101B90000831110538F310921B0210921A02C0622C
:101BA000C0931C0280E090E0DBCFC115D9F2C5FFE5
:101BB00003C00E941D01D6CF0231110598F2C06406
:101BC000C0931C0280E090E00E941901F2CF809146
:101BD000E80181110E947F048091C20181114FCFE1
:101BE0000895EF92FF920F931F93CF93DF93EC0131
:101BF00008E017E082ECE82EFF24F394209739F4F4
:101C0000DF91CF911F910F91FF90EF9008958091F8
:101C1000B7018111F5CF8091BD01823068F482E077
:101C20000E94F800C7010197F1F780E00E94F800D8
:101C3000CEDF7CD82197E2CF80E00E94F800C80177
:101C4000F2CF0F931F93CF93DF93C82F06EA811132
:101C500002C00CE0C1E0D091BE0110E080912001F3
:101C60000E94CA0582E30E94ED01D093BE01C80123
:101C7000B8DF809120010E94CA0580E00E94ED013A
:101C8000D093BE018AEF90E0ACDFCA9539F78D2F73
:101C90000E94CA058AE992E0DF91CF911F910F91CE
:101CA000A0CFCF93DF9300D0CDB7DEB7282F64E667
:101CB00031D5382F9A83892F6AE02CD59983243621
:101CC00048F48A818A3040F489810F900F90DF9127
:101CD000CF91B7CF832FB5DF8A816AE01BD5B1DF03
:101CE000F3CFCF93DF93D82FC3E080910A010E94F6
:101CF000ED0188EC90E075DFD11519F080E991E0F5
:101D000070DF80E00E94ED0188EC90E06ADFCA9508
:101D100061F7DF91CF910895FF920F931F93CF93B7
:101D2000DF93D82F8B01C091A901C43079F4F090D2
:101D3000AE010E944C06F114B1F08091AE01811108
:101D400012C060E070E087EF9BE096D8D63C08F0C8
:101D500019C1D13B08F00DC1D13009F4FEC0D83013
:101D600039F081E00DC0D83089F481E0809303011F
:101D7000809122018093A90181E08093040180E099
:101D8000DF91CF911F910F91FF900895D23C69F49C
:101D90001092AE018C2F90E0019666E070E0DAD4EC
:101DA000809322018093A901F3C0D13BC9F49091A3
:101DB0000201012B41F48FEF963618F4923018F49B
:101DC00081E08093030180910301890F811104C098
:101DD00081E080930201D3CF8736D8F386E6F9CF2E
:101DE000D13E59F480910301819580930301809144
:101DF0000401819580930401CBC0D23B69F491E04A
:101E00009093030180910201823018F081508093F9
:101E1000020190930401B3CFD13009F097CF09327A
:101E2000110511F4D093030140918701909186012F
:101E300030918501892F880F990F990B892760911F
:101E4000010170E090E055D4292F842F880F880B72
:101E5000440F842790E069E070E04BD4290F832F72
:101E6000880F330F330B83276091000170E090E0FF
:101E700040D4622F690F80910201680F7727771F86
:101E80008091AE01813091F48091AB019091AC01D1
:101E900025E0969587952A95E1F724E730E0A9019A
:101EA000481B590BCA0125D4B90140D4862F0E9482
:101EB000ED0100FD09C00E944B01982F91708091A7
:101EC0008701890F80938701809186019091840119
:101ED000890F809386010E944B0165E21BD480919B
:101EE0008501890F809385010E944B018F738111B9
:101EF00006C00E944B016DE00DD490938401C09107
:101F00000101C11541F00E944B018F73811103C083
:101F1000C150C09301010E944B01811108C00E9471
:101F20004B016EE0F7D39093010110928601C091AE
:101F30000001C33040F00E944B018F71811103C03A
:101F4000C150C09300010E944B018F77811105C0E1
:101F50000E944B018770809300010932110519F42A
:101F600081E0809304018091BA01800F8093BA01CF
:101F700006CFD15BD53108F0F4CEED2FF0E0EC5078
:101F8000FC4EFBC3D13E09F432CFD23E09F0E9CE7C
:101F90000E945B04F4CE60E070E087EF9BE00E945B
:101FA0003C07EDCE8091BE018F5F87700E94CA050D
:101FB000EC2FF0E0E45FFE4F8091BE01878BE8CF0D
:101FC0008C2F90E00596E9CEC23098F400FDD7CE74
:101FD000EC2FF0E0E45FFE4F858D90910401891BAA
:101FE0008F3F18F08EEF858FCACE8830E0F788E0FB
:101FF000FACFC53009F0C3CE80912B019091040136
:10200000890F893730F088E780932B010E94ED011A
:10201000B6CE8230C8F782E0F7CF81E0809304012A
:10202000C23060F400FDABCEEC2FF0E0E45FFE4F79
:10203000858D8F3F09F4A3CE8F5FD5CFC53009F0D2
:102040009ECE80912B01833008F38150DDCF60E07C
:1020500070E087EC97E00E943C0780E0D7CF1F92AA
:102060001FB61F9211242F933F938F939F93AF938B
:10207000BF93EF93FF938091E7018115E9F0E09121
:10208000E60120B131B1F0E0EE0FFF1FDF01AE51EC
:10209000BE4F2D933C93E252FE4F80819181821777
:1020A000930708F401962817390708F401979183DC
:1020B000808381E08093E80181E08093E701FF91D4
:1020C000EF91BF91AF919F918F913F912F911F9071
:1020D0001FBE1F9018958F9381E08093C2018F914E
:1020E00018958F9381E08093C1018F9118952F935C
:1020F0002FB72F933F938F939F9380911E0290E071
:1021000090936D0080936C0020911F02309120020B
:10211000922F9F7780911D02890F220F232F221F5C
:10212000330B319587FB992790F9920F90931E02FC
:102130008F7780931D029F918F913F912F912FBF99
:102140002F911895F89485B7877F85BF88ED0FB6D6
:10215000F894A8958FBD80B7877F80BF0FBE81E0C0
:1021600088B989E08CB98CE380BB82EA80937200E5
:1021700081E1809371008FEF90E0909369008093EC
:10218000680080E882BB87BD8CB788608CBFA8954B
:1021900080E480BF0E943B01789481E00E94270187
:1021A00060E070E085E797E00E942A071092B7018F
:1021B0000E9408048FB18038990B91959093C001CB
:1021C00087FFA4C08CE091E09093B9018093B8019F
:1021D00082E00E942701F89480E090E0D4D2853A12
:1021E00079F40091B8011091B901C1E0D0E0CE01BD
:1021F000CAD2F80181938F012196CA32D105B9F76D
:10220000789480911A0181110E94410360E070E08E
:1022100084E998E00E942A0761E070E087EF9BE084
:102220000E942A0740E4242E3324339457EF852E4E
:102230005BE0952ECC24C394D12C412C512C7FE70C
:10224000672E70E0772E0E9496068091C5019091CE
:10225000C601009751F06091C3017091C4010E94C2
:102260003C071092C6011092C5018091BF018115F3
:1022700041F180E00E94ED01A895F3E4F0BF1F98C2
:102280008FB18038990B91959093C00187FFF8CF5B
:102290000E941D018CB788608CBF1092E8011092DB
:1022A000C2011092C1018091BF01811162C022E080
:1022B00020930B018CB7877F8CBF0E943B01A895B0
:1022C00020BE85DC1092B7018091D8019091D90190
:1022D000E4E080329E0709F083C0C0E7D0E0FE0151
:1022E00084918053803108F06BC0ABDC8CE291E0CC
:1022F00078DC21966C167D0691F79092C60180924B
:10230000C5011092C4011092C3019DCFC0E08C2F73
:102310000E94ED0183E190E064DC8C2F86950E94A1
:10232000ED0183E190E05DDC8FB18038990B9195F0
:102330009093C00187FD1AC0CF5FC03441F765E1BB
:1023400081E00E9422040E945B04C6E98C2F0E9457
:10235000ED0184E090E045DCCA95C1F733CF8C2FC6
:102360000E94ED018DE090E03CDCC150C111F7CF3F
:1023700029CF8091E9018115F9F086B78F798062C4
:1023800086BF86B7806186BF889586B78F7E86BFF9
:102390008091C10181111092BF018091E8018115E6
:1023A00021F03092DD010E947F048091C2018115ED
:1023B00009F479CF64DB77CF86B78F798064E0CF7B
:1023C00010E010FB882785F90E94ED0180E190E084
:1023D00008DC1F5F1931A9F78AE992E002DC86CF99
:1023E000FEE08C389F0709F0D1C0C091A901EC2F05
:1023F000F0E0E45FFE4F87898093BE01C33009F4AB
:1024000056C0A8F4C23099F1D58D86E90E94ED013D
:1024100083E090E0C11519F08D2F869590E0E1DB07
:1024200080E00E94ED018D2F90E0DBDB0CCFC5300A
:1024300009F009CFC0912B01CC0FC73908F0C6E9CC
:10244000D4E08C2F0E94ED0185E090E0CADB809102
:102450002B010E94ED0181E490E0C3DBDA9589F75E
:1024600080ED92E0BEDB80E00E94ED01ECCED091E9
:102470000A0181E00E94CA05C0E08D2F0E94ED0193
:1024800081E290E0AEDB80E00E94ED0182E490E02A
:10249000A8DBCF5FCA3031F0C53079F785E00E9404
:1024A000CA05EBCF80911C018093BE01CCCE0E9467
:1024B0004B018F73082F10E00E944B0167E02AD177
:1024C000760102C0EE0CFF1C9A95E2F70E944B01C8
:1024D00065E020D1E60102C0CC0FDD1F9A95E2F73E
:1024E000CE0DDF1D0E944B0190E0BE0133D1C80F1D
:1024F000D91FC739D10524F026E9C22F80E0D82F93
:102500008C2F0E94ED01C8016CDB7E0133E0F59455
:10251000E7943A95E1F7E11002C0EE24E394F12C40
:10252000C8015FDB5E01AE18BF08E501B7FE02C05F
:10253000C42DD52D8C2F0E94ED010E944B0183707C
:10254000811107C0C8014DDBCE01959587950E948A
:10255000ED0122E0A216B1041CF70E944B016DE0D0
:10256000D9D0E60102C0CC0FDD1F9A95E2F70E9498
:102570004B019E012150310990E028233923C20FDD
:10258000D31F80E00E94ED01CE014FCFE7E08D3AEE
:102590009E0719F58091A801811155CEC8E086E902
:1025A0000E94ED0184E190E01CDB80E00E94ED01DF
:1025B00089E290E016DBCA9591F7C8E086E90E94AF
:1025C000ED0189E290E00DDB80E00E94ED0182E503
:1025D00090E007DBCA9591F736CEF9E08E369F077B
:1025E000B1F488EE93E0FDDA8091DC0165E092D0F1
:1025F00058DB8091DC0165E08DD0892F880F51DB9D
:1026000080911701811179CE88EE93E00ECF2BE0F7
:102610008A3C920721F48091DA0143DBF5CFE7E0B1
:102620008C349E07B9F48091C00181110CCE809149
:102630000A010E94ED0184E690E0D3DA80E00E9476
:10264000ED0180912C0190E068EE73E052D0845649
:102650009109EBCE8B59974049F480E042DB81E051
:1026600040DB80E03EDB80ED97E0DFCE8091210112
:102670008115A1F18091A501811581F13091BD01F4
:102680002091A60132130AC0822F0E94ED01109200
:10269000A5018091A7018093BC01D5CD6091A401D3
:1026A000321768F4822F831B861738F033D0830FDC
:1026B0000E94ED018AE090E0B8CE81E0F8CF862F4D
:1026C00090E06EE170E015D06091A701621B70E0B0
:1026D00041D0EB0121968FEF830F54CF86B78F79CE
:1026E00086BF86B7806186BF889586B78F7E86BF96
:1026F000AACD0024552704C0080E591F880F991F22
:10270000009729F076956795B8F37105B9F7802D94
:10271000952F0895992778E0880F991F961708F04C
:10272000961B881F7A95C9F780950895AA1BBB1B35
:1027300051E107C0AA1FBB1FA617B70710F0A61BC1
:10274000B70B881F991F5A95A9F780959095BC01E2
:10275000CD01089597FB072E16F4009406D077FD5F
:1027600008D0E4DF07FC05D03EF4909581959F4F9B
:102770000895709561957F4F0895EE0FFF1F0590A6
:10278000F491E02D0994E199FECF1FBA8EBBE09A37
:1027900099278DB30895262FE199FECF1FBA8EBBDE
:1027A000E09A81500DB2021639F01CBA2DBB0FB65B
:1027B000F894E29AE19A0FBE0895F894FFCF370992
:1027C0002E09D808D8085609D808D808D808D80833
:1027D000D808D808D808D808D808D808D8082109AF
:1027E00028093409D8084609E40F0D10B10EB10EBE
:1027F000B10EB10EB10EB10EB10EB10EB10EB10EE1
:10280000B10EB10EB10EB10ECB0FCA0ED20FE00F4A
:0228100027108F
:10281200080E18010101000482084602000108089E
:102822000882822802070301000100000001000063
:1028320001010400000000000029433202073200B7
:1028420013190100010E011101140102010000001F
:102852000000000001000000000000000001000074
:102862009101A502AF03B904C305CD06DC07FF073A
:1028720040026D02C101EB01C701EB01CD01EB0189
:10288200D301EB01D901EB01DF01EB01E501EB0122
:042892000504030036
:00000001FF
