:10000000D9C00000F4C000000C941E10F0C0000025
:10001000EEC000000C941810EAC00000E8C0000018
:10002000E6C000000C942410E2C00000E0C0000014
:10003000DEC00000DCC000000C94DC0FD8C0000063
:10004000D6C00000D4C00000D2C00000D0C0000064
:10005000CEC00000CCC00000CAC00000C8C0000074
:10006000C6C00000C4C00000C2C00000C0C0000084
:10007000303237332E302E63623137643839000026
:100080000105041410111500000100020003000412
:100090000005000600070009000A000C000E001110
:1000A000001300160019001C002000240029002D58
:1000B00000320038003E0045004C0054005C0065F2
:1000C000006E00790084008F009C00A900B800C772
:1000D00000D700E800FB000E012301390150016840
:1000E0000182019E01BA01D901F9011B023E02649D
:1000F000028B02B502E0020E033D037003A403DB92
:1001000003150451049004D10416055E05A905F7F2
:100110000548069D06F5065107B10714087C08E757
:10012000085709CB09440AC10A430BCA0B560CE70E
:100130000C7E0D190EBB0E620F0F10C1107B113A11
:10014000120013CC13A0147A155C16451735182D20
:10015000192D1A351B451C5E1D801EAA1FDD201A95
:10016000226023B02409266D27DB28532AD72B656C
:100170002DFF2EA43054321134DA35AF3791398047
:100180003B7D3D863F9E41C343F74539488A4AEB54
:100190004C5A4FDA5169540957B9597A5C4D5F315D
:1001A0006227652F68496B776EB7710B757378EFAF
:1001B0007B807F0011241FBECFEFD4E0DEBFCDBF18
:1001C00011E0A0E0B1E0ECE6F7E202C005900D928C
:1001D000A438B107D9F722E0A4E8B1E001C01D922C
:1001E000AF31B207E1F70E944F100C948A1308CF89
:1001F000F89498ED9FBD83BF78940895482F362FCB
:10020000272FE8EEF1E090E0808181110DC0892F69
:1002100090E063E070E00E942613FC01E851FE4F7D
:1002200040833183228308959F5F3396903161F735
:100230000895BC0180911A02E1CF10921A02109227
:1002400019021092180281E08093B50108950F936E
:100250001F93CF93C82F08EA17E0C15020F4CF9125
:100260001F910F91089582E0C3DFC8010197F1F754
:1002700080E0BEDFF2CF86E884B9E1E6F0E080817D
:100280008260808388E082B91092E4011092E501D7
:100290008FEE83B90895E0910601F0910701319640
:1002A000FB70F460F0930701E09306018091B801C0
:1002B0008B5A8093B801E4918091B8018E0F089514
:1002C000811521F0813031F0829A05C08298929890
:1002D0008A9808958298929A8A9A08950F931F9304
:1002E000CF93DF9300D00F92CDB7DEB7209180017E
:1002F000309181014091820129833A834B83FE0131
:10030000319640E050E0682F70E0A1E0B0E09B0142
:10031000042E02C0359527950A94E2F7922F937028
:1003200021918D0102C0000F111F2A95E2F798015B
:10033000911529F09130D1F080B3802B1BC080B390
:100340002095822380BB82B3822382BB81B3822328
:1003500081BB4E5F5F4F46305105C9F60F900F903D
:100360000F90DF91CF911F910F91089590B3802F3F
:100370008095892380BB82B3822B82BB81B3822B81
:10038000E7CF811511F082E0A9CF81E0FDCF811583
:1003900011F08AE0A3CF85E0FDCF811511F088E050
:1003A0009DCF84E0FDCF811511F088E297CF84E1E5
:1003B000FDCF811511F080E291CF80E1FDCF811555
:1003C00011F082E28BCF81E1FDCF811511F08AE23D
:1003D00085CF85E1FDCF81E00895CF93C82F80912F
:1003E000BB01811109C0C11539F080913401C817D2
:1003F00018F4F3DF82E02BDF8091BD0181110BC087
:100400006DDF91E0C11101C090E081E0C73408F4D4
:1004100080E0890F55DFC11123C08AB78F778ABF6B
:1004200010921E0210921D0210926D0010926C002C
:1004300010926F0010926E00689848988091BB01EE
:100440008C138093BA01C093BB01C093B90182E0C1
:10045000C23020F081E0CF3F09F480E0CF91C8CED8
:10046000E091BC01F0E0EE0FFF1FEE0FFF1FE05A1E
:10047000FE4F0190F081E02D8FEF8C0F0995DECFBC
:10048000E82FF0E02091BB012150330B82171306B7
:1004900019F1EE0FFF1FE957FF4F8591959190934A
:1004A0001E0280931D02880F892F881F990B91953A
:1004B00080931C02992790936D0080936C008AB7FB
:1004C00080688ABF8091BB01811104C010926F00C7
:1004D00010926E00689A489A0895E82FF0E0EE0FA7
:1004E000FF1FE957FF4F4591559120911D02309113
:1004F0001E02932F969580E02417350778F42F5F1E
:100500003F4F8F5F9817C0F730931E0220931D0254
:1005100081E02417350709F080E00895421753075A
:1005200080F721503109EDCFCF93DF9300D000D079
:1005300000D0CDB7DEB72091D6013091D7012D562E
:10054000384079F090910C01843069F4609318017F
:100550000F900F900F900F900F900F90DF91CF9111
:10056000089592E0F1CF611599F3823019F427E9EB
:10057000261B622F26E0E5E3F1E0DE0111960190F3
:100580000D922A95E1F7FE013196E80FF11DE80F73
:10059000F11D32970190F081E02DE90FF11D60838C
:1005A000D7CF813011F4609334010895CF92DF9258
:1005B000EF92FF920F931F93CF93DF93EC01609123
:1005C0000C0190911701E62F9111E2E0F0E0E45F59
:1005D000FE4F228120930901858180930801E92F34
:1005E000F0E0E45FFE4F3185422F50E0611581F06D
:1005F000313071F4480F511D55954795842FDF9187
:10060000CF911F910F91FF90EF90DF90CF900895C1
:10061000C417D507A4F18C171D068CF3611102C015
:100620008C2FEDCF821B432F4150550B7A01C82EE2
:10063000D12CC601BA010E9457136093B201822FD8
:1006400000E010E040E06695E62FF0E04317B9F2D5
:10065000C801B7010E944313822F860F0C0D1D1D88
:10066000A82FB0E0BE01681B710977FF03C0BD0170
:100670006C1B7D0BE617F70714F64F5FE7CF822F51
:10068000BECFECE0F1E0868580930A018389808B00
:100690008093BC0108958091AE01811551F0909135
:1006A000BB019093B1018093AD011092AC01109207
:1006B000AB0108950F931F93CF939B014091DA01F3
:1006C0009FEF940F903938F480E008DE80E0CF91FE
:1006D0001F910F91F5CDE82FEF709091AF0191111F
:1006E00029C0C82FC295CF708091320190E053E0AD
:1006F000880F991F5A95E1F768177907E0F4509130
:10070000B40158171906BCF45115A9F081E0909175
:10071000BA019F3008F480E091E0C23009F090E027
:10072000892BC1E0C80F8091BD01811509F463C018
:1007300080E03AC0C2E0E73010F4F0E016C0E730E5
:10074000B9F40091890110E00F5F1F4FA4DD65E04F
:100750000E9437139801290F311DC90166E070E02E
:100760000E94571380938901FC01E058FF4F28C075
:10077000E830C9F68091BD01811113C083E090E09B
:1007800082239323892B51F48091890190E0019673
:1007900066E070E00E94571380938901E09189011F
:1007A000CCCF8FE0ECCF8E5FE82FF0E0E25BFE4F26
:1007B00090814917C0F73197E081F0E0E158FF4F91
:1007C000E491C33071F48091880190E0019663E177
:1007D00070E00E94431380938801855C9E4FDC018A
:1007E000CC91C11599F0C13011F0EE0FC2E08E2FFF
:1007F00075DD8C2F6CCFC9019695879563E070E00D
:100800000E944313FC01EE0FFF1FAFCFE0E0EFCFDC
:10081000CF93C091BB0182E38C0F873908F080E051
:10082000DCDD83E014DD8C2FCF91D7CDCF93C09149
:10083000BB0180E0D2DD83E00ADD8C2FCF91CDCDEE
:1008400081E00895611569F0813099F480912F015C
:100850009091D801891B860F80932F0182E08093AD
:100860000B0180912E01873418F086E480932E01CD
:100870000895635E60932E01F4CF60933301089571
:1008800040911D0150911E01815021E030E0F9019D
:1008900002C0EE0FFF1F8A95E2F7CF01611539F014
:1008A0004E2B592B50931E0140931D0108958095A6
:1008B00048235923F7CFCF93DF938CE091E09093B7
:1008C000B7018093B60182E0C2DCF894C0E0D0E0CA
:1008D000E091B601F091B701EC0FFD1F6081219608
:1008E000CE010E947813C932D10591F765EA80E004
:1008F00090E00E9478137894DF91CF910895109240
:10090000E60180B191B12091B801829586958695D6
:100910008370990F990F890F820F8093B80180918E
:10092000DB01811509F444C01092DB018091E401E0
:100930009091BD01911529F01F981092E701109236
:10094000E40181115BC080910B01811591F18091CF
:10095000E0019091E1019093DD018093DC016091D1
:100960002D016750262F220F6AE171E00E94431388
:10097000620F6093DA018091A2018115B9F1815073
:100980008093A2018091BD01811109C08EE884B9D4
:1009900081E08093E4011092E5018FEE83B98091AC
:1009A0000B01811529F080910B01815080930B017F
:1009B00008952091BD018091DC019091DD01211508
:1009C00071F22091E0013091E10143E036952795E5
:1009D0004A95E1F7280F391F53E0969587955A9568
:1009E000E1F7A901481B590BCA01B5CF613950F68F
:1009F00060E070E084E002DC85E0C2CF813079F60F
:100A000080910B01811541F08091E2019091E30109
:100A10009093DF018093DE018091DE019091DF01F0
:100A2000A0912F019C01B6E036952795BA95E1F784
:100A30000A2E000CBB0B2A0F3B1F2E503140309367
:100A4000D9012093D80125E0969587952A95E1F75D
:100A500020910B0121113CC020919101E22FF0E087
:100A6000EE0FFF1FEE56FE4F40815181BC01641B0B
:100A7000750BAB01918380832F5F277020939101C9
:100A8000660F771F660F771F680F791F80912E0101
:100A900090E08A1B9B0B825F9E4F880F991F681BFB
:100AA000790B83E016161706A4F5615071098A9533
:100AB000C9F7161617060CF045C057FD62C08091A5
:100AC0009001181664F5861B80939001D4DB67CFE4
:100AD0009093930180939201909395018093940158
:100AE0009093970180939601909399018093980138
:100AF00090939B0180939A0190939D0180939C0118
:100B000090939F0180939E019093A1018093A001F7
:100B1000A3CF6115710559F26F5F7F4FC8CF660F84
:100B2000771F653071055CF06350710975956795A5
:100B300088E1861B8093900185E060DBC7CF61E090
:100B400070E0F6CF6C3F8FEF7807DCF457FF19C0E9
:100B50008091900187FF02C08450B5CF84EE861B40
:100B6000809390018091DA01833908F4AFCF8CEF44
:100B70009FEF9C01261B370BB9017595679586E0A1
:100B8000DCCF8091DA01823908F4A0CF60E070E018
:100B900087E0D3CFCF93DF93C82F8091BC018C1710
:100BA00051F0D091BB0180E018DCC093BC018D2FC7
:100BB000DF91CF9112CCDF91CF910895813019F45C
:100BC00010921A010895823019F460931B01089560
:100BD000833019F4609319010895843019F46093F7
:100BE0000D010895853011F460932101089582303C
:100BF00019F4609332010895611160932D010895F5
:100C00008093B3019091BB01282F291B981710F0F6
:100C1000292F281B3091A501311106C030912101E7
:100C2000311569F0223058F08093A60184E080935A
:100C3000A40181E08093A5019093A7010895CDCBF5
:100C4000EF92FF921F93CF93DF937C01D62FC72F94
:100C5000142F8091D6019091D701892B31F0E0912A
:100C6000D601F091D70189E00995F092D701E09281
:100C7000D601EF2841F0E091D601F091D7016D2F18
:100C80007C2F812F099581E08093B501DF91CF9171
:100C90001F91FF90EF900895282FCB01283039F451
:100CA0001092AE011092AC011092AB010895213B5D
:100CB00059F48091AE0181508330B8F583E0809380
:100CC000AE018093AD01EECF253BA1F46EE370E061
:100CD0000E944313892B49F58091AE018A3F28F584
:100CE0008B5F8093AE018093AD011092AC011092A6
:100CF000AB018ECD2130C9F48091AB019091AC0154
:100D0000019688382EE0920728F49093AC018093E6
:100D1000AB0108951092AC011092AB018091AE012D
:100D2000811519F081508093AE010895EF92FF92E2
:100D30001F93CF93DF931091E801111106C0DF914B
:100D4000CF911F91FF90EF900895E090E901F0900E
:100D5000EA01C091C501C1500C2E000CDD0BC7FD8E
:100D60000EC0FE01EE0FFF1FEA53FE4F0190F0810F
:100D7000E02DB701812F099521978111F0CFE8EE81
:100D8000F1E083818083848195819283818333968E
:100D900082E0E531F807A9F71092150210921702C8
:100DA00010921602C8CFE091C501E11529F0E1507B
:100DB000E093C501E11106C080E090E04AE060E008
:100DC00070E03ECFE150FF0BEE0FFF1FEA53FE4FE6
:100DD00080819181F3CF883039F41092A301109271
:100DE0008A0180E0FADA0CC08130F1F490918A0136
:100DF000911108C06032710518F080938A011DDAE4
:100E000080E00895913071F46B3B710520F082E031
:100E100080938A01E6CF61FB882783F98E5E672B7A
:100E200079F3E0CFC0DFECCF813859F481E08093D3
:100E30008A018091A3018F5F8093A301FED98BE487
:100E4000D1CF813EE9F681E080938A018091A301B0
:100E5000865FF2CF2091C501283068F4E22FF0E0E0
:100E6000EE0FFF1FEA53FE4F808391832F5F209385
:100E7000C50148E0E5CE08950F931F93CF93DF930C
:100E8000D82FC92F8B018FDFB8018D2F9C2FDF91B9
:100E9000CF911F910F91DECF282FCB01213C39F448
:100EA00060E070E08BEA9BE0E7DF80E00895223CA1
:100EB00029F460E070E083E599E0F6CF213B41F44E
:100EC0006EE370E00E944313892B79F7A1DCEDCF2C
:100ED000213E49F46EE370E00E9443136F5F60931C
:100EE0002C01E9DCE2CF81E00895843011F5809196
:100EF000D6019091D7012EE08633920731F469E153
:100F000070E08FE799E0B8DF0DC08F57994061F42A
:100F10009091BB01923040F0892F869596959695D9
:100F2000890F6EDE80E0089560E070E08BEA9BE060
:100F3000EACF81E00895813C39F460E070E08BEA0B
:100F40009BE09ADF80E00895823C29F460E070E045
:100F50008CE497E0F6CF81E00895883049F0813C39
:100F600049F41092A80160E070E08BEA9BE084DF16
:100F700080E00895823C49F48091A80190E00196B8
:100F8000817099278093A801F3CF81E00895813C77
:100F900039F460E070E08BEA9BE06EDF80E008955A
:100FA00082E09CC908951F93CF93DF93162FD72F0C
:100FB000C42FF9018830C9F48091BC0180938C0161
:100FC00010928B0180E009DA8091BE01811158C036
:100FD00080918B018F5F80938B0160E070E08BEEDE
:100FE00096E0DF91CF911F9135CF982F907F903B66
:100FF00039F580918B01481708F18150883040F411
:101000009091B001911521F09091BC018913C2DD3E
:10101000812F9D2F6DE570E00E944313069761F4C8
:1010200080918B018F5F80938B01C81748F188E313
:10103000DF91CF911F91D1C982E1FACF80E0F8CF43
:10104000903E51F480918B01811571F0481760F04A
:1010500080918C019FDDC1CF8A3051F46091A30152
:1010600080918B01099527DCDF91CF911F919BCE59
:10107000893031F480918C01DF91CF911F918ACD1D
:10108000DF91CF911F91089591E09093B00120E4FA
:1010900034E048E088DF1092B00180E008952DE34D
:1010A00034E041E080DF80E0089522E234E042E075
:1010B0007ADF80E0089527EF35E042E074DF80E0DA
:1010C000089521ED32E041E06EDF80E008952EEDDD
:1010D00035E045E068DF80E0089524E932E044E04F
:1010E00062DF80E0089524E932E043E05CDF80E0E5
:1010F0000895833C29F55091BC0160911D017091C8
:101100001E01952F48E0892F90E001969C012770E1
:101110003327922FFB01022E02C0F695E7950A9421
:10112000E2F7E0FD02C04A9571F75917A9F0822F46
:1011300031DD8091BC0180931C01BDDB80E008950E
:1011400090911701911108C0893B31F460E070E083
:1011500084E498E07FDEF2CF81E008950F931F933F
:10116000CF93C82F8B01883CF0F4833B98F48330F5
:10117000B1F18830F1F0813021F1809117018111B6
:1011800090C0CA3B09F08DC060E070E08FE498E049
:1011900061DE20C0EDE4E80FE53178F7F0E0E457D8
:1011A000FC4E0C946A13873E41F71092AF0183DB2B
:1011B00011C01092B40160E070E0809131017ADAE0
:1011C000DCCF6931710530F08093BD01B8018091A9
:1011D000310170DA80E0CF911F910F9108958091D5
:1011E000B4018F3F19F08F5F8093B40180911A0191
:1011F000811561F380911B0190E062EC71E00E9427
:1012000026130817190710F33CDAE0CF01DB60E082
:1012100070E08BEA9BE030DEDDCF60910A0170E088
:101220008FE799E0F8CF02DB10921A0261E070E0DC
:10123000F7CF66E970E0F4CFCB016EE370E00E9477
:101240004313892B09F099CF60E070E083ECCF91D4
:101250001F910F914ECF90913101892F807F805F38
:1012600080739F70892B8093310160E070E022DAF7
:1012700022DBCEDAAFCF81E08093AF01CB018F7359
:101280009927892B09F0A2CF20913101822F8F70ED
:101290008F5F6BE00E943713207F922B9093310178
:1012A00095CF81E098CFCF93C0911701C11125C090
:1012B000813C41F460E070E08BEA9BE0DDDD8C2F47
:1012C000CF910895823C29F460E070E08EE79BE0C6
:1012D000F5CF833C51F48091200190E00196877016
:1012E000992780932001E7DAEACF873B31F460E069
:1012F00070E08BE598E0AEDDE2CFC1E0E0CF9F92F9
:10130000AF92BF92CF92DF92EF92FF920F931F9313
:10131000CF93DF93C82F8B0180911C018093BC0178
:10132000A0900901F090080180910C01B090B201E9
:10133000811102C0BB24B39480911701E0900D018C
:101340008111E0901801E114D9F141E0E41621F097
:1013500080910A018F15A0F1D6E99090AE01B801F5
:101360008C2F9ADC8091AE01811561F1911004C03F
:101370009091BB019093B101C83061F1CA3069F519
:101380001092AA0100910A0110E0A016110628F49B
:101390000F15110510F400930A01C80107D930DCBC
:1013A00081E08093050180E0DF91CF911F910F9143
:1013B000FF90EF90DF90CF90BF90AF909F900895F7
:1013C000DF2DCBCF9114C1F260E070E08BEA9BE09F
:1013D00053DDE9CF1092AA01D8CFC13CA9F3C23C9A
:1013E00049F48091BB018D1708F042C08D2F08DCB5
:1013F00052D9D9CFC43C41F480E00E94ED0160E0B5
:1014000070E08EEA98E0E4CF9FE49C0F923008F001
:101410005BC080910C01811571F1C80168E170E039
:101420000E944313892B09F0BECF8091A501811141
:10143000BACF2091BB010115110541F5C23B01F561
:101440008FEF80930501C091BB01809105016B2D49
:1014500070E0082E000C990B0E9426138C0F911D32
:10146000A5D880930A01C81719F08F1101C0DED9E1
:1014700080910A01BCCF6091140170E0C801D0CF07
:101480002F15F0F6A216F8F281E0DBCFE0911401FF
:10149000F0E0CF0166E371E00E9426138017910708
:1014A00010F42F1568F6CF016CE672E00E94261347
:1014B0008017910740F6A21630F2AAD960E070E0DA
:1014C0008EEA98E0D9DCBFCF9FE19C0F923020F4E8
:1014D00080910501819565CFC13009F087C009323F
:1014E000110511F4C0930501811581F1E091B1015D
:1014F000F0E090E0BF010E9426136C012091AD0145
:1015000030E0B9010E945713462FC6018E1B9F0B76
:10151000B9010E945713242F261B8091AB01909193
:10152000AC016EE370E00E944313822F90E00E94B2
:1015300026136CE370E00E944313842F861B46132E
:1015400001C081E08093B9018093B301C091B901DA
:101550002091BB014C2F421B550BCA0160918D019C
:1015600070918E016F5F7F4F70938E0160938D013C
:10157000009709F418CF3CF440E051E0233828F0FC
:1015800040E450E002C040E052E05695479597FD98
:101590000196959587950097C1F74617570708F06C
:1015A00002CFC217F8F4CFEFC20FE091BC01F0E018
:1015B000EE0FFF1FEE0FFF1FE05AFE4F0280F38178
:1015C000E02D8FEF8C0F0995811539F0D091B9017D
:1015D0008C2F0E94ED01D093B90110928E011092D0
:1015E0008D01E1CE2C1708F7C1E0DECFC53081F4C4
:1015F0008091BB01833308F4D6CE90E0801B910B21
:1016000087399105ACF086E990E08093B901CBCEA3
:10161000C630A1F48091BB012091B301821708F07C
:10162000C2CE080F111D822F2017110674F3C801B6
:101630008233910554F782E390E0E7CFC73069F435
:101640009091B9018091BB01891710F48F5FDDCFB4
:10165000981708F0A8CE8150D8CFC63C89F481E015
:1016600090910C01911180E080930C0124D9DED877
:101670008091BB0190E00E94D60280930A01B7CE10
:1016800080911701811138C0C33B41F4012B09F04F
:101690008ACEE110D6E98D2FB3DA85CEC33E19F498
:1016A00080910A01F9CFC53C61F48091BB01809320
:1016B0000A0180E00E94ED0160E070E087EC97E0B5
:1016C00087CE60E070E083E798E0C73B99F0CA3CC2
:1016D00059F48091BB0180931A018091BC018093E1
:1016E0001F01E9D895D85FCECA3B31F460E070E0C5
:1016F00087E698E0AFDB57CE81E056CE813C39F4E7
:1017000060E070E08BEA9BE0B7DB80E00895823C0C
:1017100029F460E070E08BE997E0F6CF873B31F485
:1017200060E070E085E598E095DBEFCF81E008951B
:1017300090912101911569F08093A60188E0809332
:10174000A40181E08093A5018091BB018093A70152
:1017500008950C94ED01CF93DF93EB018830A1F451
:1017600080E0E6DF8091A501C82B1092B401809142
:101770001C018093BC011092AE0181E0CD2B69F079
:1017800080E0DF91CF910895813051F46931710586
:10179000B8F39091A5019111F3CF8093BD01F0CFE3
:1017A000833059F58091B4018F3F19F08F5F80939A
:1017B000B40180911A01811559F080911B0190E0CC
:1017C00062EC71E043D7C817D90710F00E944103BB
:1017D000BE01809130010E945A038091330181152E
:1017E00079F290E062EC71E031D78C179D0740F6FA
:1017F00060E070E08EEA98E016C0813BB1F481E0D1
:1018000090E00E94D60294DF809119018111B8CF37
:1018100080910C01811103C0689708F4B1CF61E099
:1018200070E08FE799E028DBABCF813EC1F38138D0
:1018300039F480910A0190E00E94D60279DFA0CFAE
:1018400060910A0170E0813C61F3823B91F4109257
:10185000B40180911701811107C080910D018111A0
:1018600006C086E990E0E8CF80911801F8CF86E9BC
:10187000E5CF823E11F480E0E1CF66E970E0823C82
:1018800081F2833919F41092A501F5CF853C51F40A
:1018900080911701813009F474CF60E070E083E536
:1018A00099E0C1CF843C41F480911701813009F463
:1018B00068CF0E9408049CCF8D3B41F4F89488EDDA
:1018C0008FBD88E880BF7894A895FFCF8F3C51F4F6
:1018D00080911701813009F454CF60E070E080E21C
:1018E00094E0A1CF8A3BA1F4209709F052C08091E7
:1018F0001701811539F00E940804109217010E9407
:101900005B043ECF60E070E08DE698E0A3DA38CF6C
:10191000833B51F480911701813009F432CF60E0AC
:1019200070E086E39EE07FCF873C99F49091300190
:10193000892F807F805F80739F70892B8093300117
:1019400060E070E00E945A030E945B040E94080459
:1019500017CF873BC9F481E08093AF01CE018F732D
:101960009927892B59F420913001822F8F708F5F36
:101970006BE07DD6207F922B90933001BE01809149
:1019800030010E945A03FCCE873E19F41092AF0139
:10199000B6CF9091170191111AC08A3C31F40E9480
:1019A000080481E080931701AACF833C39F40E9498
:1019B000080460E070E087EC97E035CF893B39F4AC
:1019C000CD2B29F460E070E081E698E09FCF81E0C4
:1019D000D8CE0F931F93CF931092C001809118021D
:1019E000909119029C012F5F3F4F88279078822B9E
:1019F000932B90931902809318022091BE019FB1FE
:101A00009038880B81958093BE012817C1F0109201
:101A1000BD018093BE0180911A0297FD31C0982FBD
:101A200090698F708F3009F09F5F90931A0280E069
:101A300090E00E9419011092190210921802009170
:101A40001802109119028091BD01811539F1B80178
:101A500083E00E94FE006AD90134110520F00F7066
:101A60001127012B99F510928F0181E08093E701F6
:101A70000E943B018FEE83B981E08093DB0120C09F
:101A8000982F9F7E85FD08C0906890931A028091E0
:101A9000180290911902CDCF906CF7CFC0911A0225
:101AA0008C2F807F803BB1F460E070E081E00E9489
:101AB000FE00C8010E94190180918F018115D1F2A9
:101AC00080918F018F5F8F7180938F01CF911F91D4
:101AD0000F910895B80181E00E94FE00C4FF0FC07D
:101AE000C5FDE7CF0831110538F3109219021092A5
:101AF0001802C062C0931A0280E090E0DBCFC115EB
:101B0000D9F2C5FF03C00E941D01D6CF02311105D5
:101B100098F2C064C0931A0280E090E00E9419011C
:101B2000F2CF8091E60181110E947F048091C00173
:101B300081114FCF0895EF92FF920F931F93CF9390
:101B4000DF93EC0108E017E082ECE82EFF24F39429
:101B5000209739F4DF91CF911F910F91FF90EF9073
:101B600008958091B5018111F5CF8091BB0182303C
:101B700068F482E00E94F800C7010197F1F780E065
:101B80000E94F800CEDFD2D82197E2CF80E00E94F9
:101B9000F800C801F2CF0F931F93CF93DF93C82FA4
:101BA00006EA811102C00CE0C1E0D091BC0110E056
:101BB000809120010E94CA0582E30E94ED01D0932A
:101BC000BC01C801B8DF809120010E94CA0580E0F5
:101BD0000E94ED01D093BC018AEF90E0ACDFCA9582
:101BE00039F78D2F0E94CA058AE992E0DF91CF91E3
:101BF0001F910F91A0CFCF93DF9300D0CDB7DEB769
:101C0000282F64E634D5382F9A83892F6AE02FD5A0
:101C10009983243648F48A818A3040F489810F9070
:101C20000F90DF91CF91B7CF832FB5DF8A816AE024
:101C30001ED5B1DFF3CFCF93DF93D82FC3E08091D0
:101C40000A010E94ED0188EC90E075DFD11519F0D2
:101C500080E991E070DF80E00E94ED0188EC90E087
:101C60006ADFCA9561F7DF91CF910895FF920F93D4
:101C70001F93CF93DF93D82F8B01C091A90181E0EF
:101C80008093AA01C43079F4F090AE018D2F04D86E
:101C9000F114B1F08091AE01811112C060E070E0EA
:101CA0008BEA9BE0E9D8D63C08F019C1D13B08F09B
:101CB0000DC1D13009F4FEC0D83039F081E00DC03B
:101CC000D83089F481E080930301809122018093D0
:101CD000A90181E08093040180E0DF91CF911F9101
:101CE0000F91FF900895D23C69F41092AE018C2FB1
:101CF00090E0019666E070E0DAD480932201809350
:101D0000A901F3C0D13BC9F490910201012B41F428
:101D10008FEF963618F4923018F481E08093030127
:101D200080910301890F811104C081E08093020139
:101D3000D3CF8736D8F386E6F9CFD13E59F48091D8
:101D40000301819580930301809104018195809323
:101D50000401CBC0D23B69F491E0909303018091E0
:101D60000201823018F081508093020190930401A7
:101D7000B3CFD13009F097CF0932110511F4D093C8
:101D80000301409187019091860130918501892F4F
:101D9000880F990F990B89276091010170E090E0FD
:101DA00055D4292F842F880F880B440F842790E067
:101DB00069E070E04BD4290F832F880F330F330B6A
:101DC00083276091000170E090E040D4622F690F9A
:101DD00080910201680F7727771F8091AE018130D3
:101DE00091F48091AB019091AC0125E09695879597
:101DF0002A95E1F724E730E0A901481B590BCA01F5
:101E000025D4B90140D4862F0E94ED0100FD09C000
:101E10000E944B01982F917080918701890F8093C8
:101E200087018091860190918401890F80938601BA
:101E30000E944B0165E21BD480918501890F80933C
:101E400085010E944B018F73811106C00E944B01D6
:101E50006DE00DD490938401C0910101C11541F052
:101E60000E944B018F73811103C0C150C0930101C7
:101E70000E944B01811108C00E944B016EE0F7D314
:101E80009093010110928601C0910001C33040F08F
:101E90000E944B018F71811103C0C150C09300019A
:101EA0000E944B018F77811105C00E944B01877002
:101EB000809300010932110519F481E08093040137
:101EC0008091B801800F8093B80106CFD15BD531E6
:101ED00008F0F4CEED2FF0E0EF55FC4EFBC3D13E01
:101EE00009F432CFD23E09F0E9CE0E945B04F4CE71
:101EF00060E070E08BEA9BE00E943C07EDCE8091B1
:101F0000BC018F5F87700E94CA05EC2FF0E0E45F90
:101F1000FE4F8091BC01878BE8CF8C2F90E0059617
:101F2000E9CEC23098F400FDD7CEEC2FF0E0E45FAC
:101F3000FE4F858D90910401891B8F3F18F08EEF25
:101F4000858FCACE8830E0F788E0FACFC53009F037
:101F5000C3CE80912B0190910401890F893730F015
:101F600088E780932B010E94ED01B6CE8230C8F73E
:101F700082E0F7CF81E080930401C23060F400FD7D
:101F8000ABCEEC2FF0E0E45FFE4F858D8F3F09F480
:101F9000A3CE8F5FD5CFC53009F09ECE80912B01A7
:101FA000833008F38150DDCF60E070E087EC97E08C
:101FB0000E943C0780E0D7CF1F921FB61F921124CA
:101FC0002F933F938F939F93AF93BF93EF93FF9381
:101FD0008091E5018115E9F0E091E40120B131B192
:101FE000F0E0EE0FFF1FDF01A052BE4F2D933C9398
:101FF000E452FE4F808191818217930708F4019685
:102000002817390708F401979183808381E0809332
:10201000E60181E08093E501FF91EF91BF91AF91DF
:102020009F918F913F912F911F901FBE1F901895E8
:102030008F9381E08093C0018F9118958F9381E0F9
:102040008093BF018F9118952F932FB72F933F93B4
:102050008F939F9380911C0290E090936D008093EA
:102060006C0020911D0230911E02922F9F7780916B
:102070001B02890F220F232F221F330B319587FB61
:10208000992790F9920F90931C028F7780931B02EF
:102090009F918F913F912F912FBF2F911895F89479
:1020A00085B7877F85BF88ED0FB6F894A8958FBD5B
:1020B00080B7877F80BF0FBE81E088B989E08CB987
:1020C0008CE380BB82EA8093720081E1809371008F
:1020D0008FEF90E0909369008093680080E882BB66
:1020E00087BD8CB788608CBFA89580E480BF0E94B4
:1020F0003B01789481E00E94270160E070E085E771
:1021000097E00E942A071092B5010E9408048FB13F
:102110008038990B91959093BE0187FFA4C08CE005
:1021200091E09093B7018093B60182E00E9427016D
:10213000F89480E090E0D4D2853A79F40091B60129
:102140001091B701C1E0D0E0CE01CAD2F80181936D
:102150008F012196CA32D105B9F7789480911A017E
:1021600081110E94410360E070E089E798E00E94DD
:102170002A0761E070E08BEA9BE00E942A0740E4B6
:10218000242E332433945BEA852E5BE0952ECC24F9
:10219000C394D12C412C512C7EE7672E70E0772E12
:1021A0000E9496068091C3019091C401009751F05E
:1021B0006091C1017091C2010E943C071092C4015C
:1021C0001092C3018091BD01811541F180E00E9410
:1021D000ED01A895F3E4F0BF1F988FB18038990BFB
:1021E00091959093BE0187FFF8CF0E941D018CB797
:1021F00088608CBF1092E6011092C0011092BF015E
:102200008091BD01811162C022E020930B018CB747
:10221000877F8CBF0E943B01A89520BE82DC109274
:10222000B5018091D6019091D701E4E080329E07FC
:1022300009F083C0C0E7D0E0FE0184918053803173
:1022400008F06BC0A8DC8CE291E075DC21966C167E
:102250007D0691F79092C4018092C3011092C20151
:102260001092C1019DCFC0E08C2F0E94ED0183E14F
:1022700090E061DC8C2F86950E94ED0183E190E077
:102280005ADC8FB18038990B91959093BE0187FDF0
:102290001AC0CF5FC03441F765E181E00E9422049B
:1022A0000E945B04C6E98C2F0E94ED0184E090E05F
:1022B00042DCCA95C1F733CF8C2F0E94ED018DE02F
:1022C00090E039DCC150C111F7CF29CF8091E701EF
:1022D0008115F9F086B78F79806286BF86B78061F5
:1022E00086BF889586B78F7E86BF8091BF0181119A
:1022F0001092BD018091E601811521F03092DB0141
:102300000E947F048091C001811509F479CF61DBBF
:1023100077CF86B78F798064E0CF10E010FB8827F5
:1023200085F90E94ED0180E190E005DC1F5F193125
:10233000A9F78AE992E0FFDB86CFFEE086339F07AC
:1023400009F0D1C0C091A901EC2FF0E0E45FFE4F8D
:1023500087898093BC01C33009F456C0A8F4C23009
:1023600099F1D58D86E90E94ED0183E090E0C115D9
:1023700019F08D2F869590E0DEDB80E00E94ED0164
:102380008D2F90E0D8DB0CCFC53009F009CFC0917C
:102390002B01CC0FC73908F0C6E9D4E08C2F0E947E
:1023A000ED0185E090E0C7DB80912B010E94ED01FB
:1023B00081E490E0C0DBDA9589F780ED92E0BBDB49
:1023C00080E00E94ED01ECCED0910A0181E00E94F4
:1023D000CA05C0E08D2F0E94ED0181E290E0ABDBE9
:1023E00080E00E94ED0182E490E0A5DBCF5FCA307F
:1023F00031F0C53079F785E00E94CA05EBCF8091B6
:102400001C018093BC01CCCE0E944B018F73082F1E
:1024100010E00E944B0167E02AD1760102C0EE0C69
:10242000FF1C9A95E2F70E944B0165E020D1E6017E
:1024300002C0CC0FDD1F9A95E2F7CE0DDF1D0E9482
:102440004B0190E0BE0133D1C80FD91FC739D10568
:1024500024F026E9C22F80E0D82F8C2F0E94ED01B6
:10246000C80169DB7E0133E0F594E7943A95E1F722
:10247000E11002C0EE24E394F12CC8015CDB5E01A4
:10248000AE18BF08E501B7FE02C0C42DD52D8C2FB4
:102490000E94ED010E944B018370811107C0C801A9
:1024A0004ADBCE01959587950E94ED0122E0A216A8
:1024B000B1041CF70E944B016DE0D9D0E60102C0C7
:1024C000CC0FDD1F9A95E2F70E944B019E0121502F
:1024D000310990E028233923C20FD31F80E00E94E6
:1024E000ED01CE014FCFE7E08D3A9E0719F58091BF
:1024F000A801811155CEC8E086E90E94ED0184E172
:1025000090E019DB80E00E94ED0189E290E013DBAE
:10251000CA9591F7C8E086E90E94ED0189E290E052
:102520000ADB80E00E94ED0182E590E004DBCA95C1
:1025300091F736CEF9E083359F07B1F488EE93E04A
:10254000FADA8091DA0165E092D055DB8091DA0108
:1025500065E08DD0892F880F4EDB809117018111A6
:1025600079CE88EE93E00ECF2BE08E37920721F4E0
:102570008091D80140DBF5CFE7E08C349E07B9F4B9
:102580008091BE0181110CCE80910A010E94ED0163
:1025900084E690E0D0DA80E00E94ED0180912C0189
:1025A00090E068EE73E052D084569109EBCE8B59DF
:1025B000974049F480E03FDB81E03DDB80E03BDB9E
:1025C00080ED97E0DFCE809121018115A1F180910E
:1025D000A501811581F13091BB012091A601321333
:1025E0000AC0822F0E94ED011092A5018091A701DF
:1025F0008093BA01D5CD6091A401321768F4822F7F
:10260000831B861738F033D0830F0E94ED018AE0D8
:1026100090E0B8CE81E0F8CF862F90E06EE170E0D8
:1026200015D06091A701621B70E041D0EB012196AB
:102630008FEF830F54CF86B78F7986BF86B78061BF
:1026400086BF889586B78F7E86BFAACD0024552782
:1026500004C0080E591F880F991F009729F076951E
:102660006795B8F37105B9F7802D952F08959927CF
:1026700078E0880F991F961708F0961B881F7A95A7
:10268000C9F780950895AA1BBB1B51E107C0AA1F7B
:10269000BB1FA617B70710F0A61BB70B881F991F03
:1026A0005A95A9F780959095BC01CD01089597FBA7
:1026B000072E16F4009406D077FD08D0E4DF07FC5F
:1026C00005D03EF4909581959F4F08957095619542
:1026D0007F4F0895EE0FFF1F0590F491E02D0994B0
:1026E000E199FECF1FBA8EBBE09A99278DB308956A
:1026F000262FE199FECF1FBA8EBBE09A81500DB212
:10270000021639F01CBA2DBB0FB6F894E29AE19A82
:102710000FBE0895F894FFCF1C091309BD08BD082A
:102720003B09BD08BD08BD08BD08BD08BD08BD0802
:10273000BD08BD08BD08BD0806090D091909BD0879
:102740002B09910FBA0F5E0E5E0E5E0E5E0E5E0ED0
:102750005E0E5E0E5E0E5E0E5E0E5E0E5E0E5E0E19
:0C2760005E0E780F770E7F0F8D0FD40FE8
:10276C00080E180101010004820846020001080845
:10277C00088282280207030100010000000100000A
:10278C00010104000000000000294332020732005E
:10279C0013190100010E01110114010201000000C6
:1027AC00000000000100000000000000000100001B
:1027BC009101A502AF03B904C305CD06DC07FF07E1
:1027CC0040026D02C101EB01C701EB01CD01EB0130
:1027DC00D301EB01D901EB01DF01EB01E501EB01C9
:0427EC0005040300DD
:00000001FF
