:10000000D9C00000F4C000000C94B510F0C000008E
:10001000EEC000000C94A610EAC00000E8C000008A
:10002000E6C000000C94C410E2C00000E0C0000074
:10003000DEC00000DCC000000C946810D8C00000D6
:10004000D6C00000D4C00000D2C00000D0C0000064
:10005000CEC00000CCC00000CAC00000C8C0000074
:10006000C6C00000C4C00000C2C00000C0C0000084
:10007000303237332E323032352D30322D3036009B
:100080000001050414101115000001000200030016
:10009000040005000600070009000A000C000E001D
:1000A00011001300160019001C0020002400290074
:1000B0002D00320038003E0045004C0054005C002A
:1000C00065006E00790084008F009C00A900B800D4
:1000D000C700D700E800FB000E01230139015001E1
:1000E000680182019E01BA01D901F9011B023E0299
:1000F00064028B02B502E0020E033D037003A40309
:10010000DB03150451049004D10416055E05A9050E
:10011000F70548069D06F5065107B10714087C0847
:10012000E7085709CB09440AC10A430BCA0B560C0E
:10013000E70C7E0D190EBB0E620F0F10C1107B1164
:100140003A120013CC13A0147A155C164517351813
:100150002D192D1A351B451C5E1D801EAA1FDD2082
:100160001A226023B02409266D27DB28532AD72BB7
:10017000652DFF2EA43054321134DA35AF37913962
:10018000803B7D3D863F9E41C343F74539488A4ABF
:10019000EB4C5A4FDA5169540957B9597A5C4D5FA3
:1001A000316227652F68496B776EB7710B7573786D
:1001B000EF7B807F11241FBECFEFD4E0DEBFCDBF29
:1001C00011E0A0E0B1E0EEE6F8E202C005900D9289
:1001D000A438B107D9F722E0A4E8B1E001C01D922C
:1001E000A432B207E1F70E94F5100C94351408CF41
:1001F000F89498ED9FBD83BF78940895482F9B0194
:10020000EDEEF1E090E080E0508151110BC063E031
:1002100070E00E94D713FC01E351FE4F408332830C
:10022000218305C0019633968031910569F70895C1
:10023000EF92FF920F931F93CF93DF93D091ED0135
:10024000D11107C0DF91CF911F910F91FF90EF90D7
:100250000895E090EE01F090EF01C091CA01C15005
:100260000C2F000F110B03531E4FC7FD09C0D801FF
:10027000FE91EE918D01B7018D2F0995811114C06A
:10028000EDEEF1E083818083848195819283818387
:100290003396B2E0EA31FB07A9F710921A021092E6
:1002A0001C0210921B02CACFC150DFCFBC0180914B
:1002B0001F02A4CF10921F0210921E0210921D0264
:1002C00081E08093BA0108950F931F93CF93C82FB5
:1002D00008EA17E0C15020F4CF911F910F910895C3
:1002E00082E086DFC8010197F1F780E081DFF2CF7D
:1002F00086E884B9E1E6F0E080818260808388E06E
:1003000082B91092E9011092EA018FEE83B9089543
:10031000E0910601F09107013196FB70F460F093D3
:100320000701E09306018091BD018B5A8093BD01C6
:10033000E4918091BD018E0F0895CF93DF9300D09B
:100340001F92CDB7DEB72091350130913601409133
:10035000370129833A834B83FE01319650E040E018
:10036000A1E0B0E090E02191BD0102C0660F771FCF
:100370002A95E2F79B01BC01042E02C07595679592
:100380000A94E2F7637029F06130D1F030B3322B78
:100390001BC060B3322F3095262F232320BB22B3FE
:1003A000232322BB21B3232321BB4E5F5F4F463063
:1003B0005105C9F60F900F900F90DF91CF910895DE
:1003C00060B3322F3095362330BB32B3322B32BB81
:1003D00031B3232BE9CF811102C081E0AECF82E09F
:1003E000FDCF811102C085E0A8CF8AE0FDCF811149
:1003F00002C084E0A2CF88E0FDCF811102C084E179
:100400009CCF88E2FDCF811102C080E196CF80E2CF
:10041000FDCF811102C081E190CF82E2FDCF811139
:1004200002C085E18ACF8AE2FDCF81E00895E82FFE
:10043000F0E0EE0FFF1FE857FF4F459154912091D8
:10044000220230912302932F969580E024173507DE
:1004500078F42F5F3F4F8F5F9817C0F730932302D8
:100460002093220281E04217530709F080E00895AB
:100470004217530780F721503109EDCFCF93DF9317
:1004800000D000D000D0CDB7DEB720910C01409154
:10049000DB015091DC014E505B4009F422E08430D6
:1004A00059F46093180126960FB6F894DEBF0FBE7C
:1004B000CDBFDF91CF9108956623A9F3823019F45F
:1004C00097E9961B692F96E0E8E3F1E0DE011196CB
:1004D00001900D929A95E1F78150990B880F991F21
:1004E000A1E0B0E0AC0FBD1F8A0F9B1FDC01ED91B6
:1004F000FC91E20FF11D6083D6CF813011F460933F
:1005000034010895BF92CF92DF92EF92FF920F9342
:100510001F93CF93DF93EC0140910C019091170151
:10052000E42F9111E2E0F0E0E45FFE4F228120939E
:100530000901858180930801E92FF0E0E45FFE4F17
:100540003185622F70E0442389F0313079F4860FD1
:10055000972F911D95958795DF91CF911F910F91C1
:10056000FF90EF90DF90CF90BF900895C617D70708
:1005700094F18C171D0684F3411102C08C2FECCF2F
:10058000821B432F4150550B8A01E82EF12CC701E5
:10059000BA010E9408146093B7016695E62FF0E057
:1005A000822FD12CC12CB12CB316B1F2C601B801E7
:1005B0000E94F413822F860FCE0CDF1CAE01481B65
:1005C000510957FF03C0519541955109E417F507AB
:1005D0001CF6B394E9CF822FBFCFECE0F1E0868523
:1005E00080930A018389808B8093C1010895809153
:1005F000AE01882351F09091C0019093B601809391
:10060000AD011092AC011092AB01089581E0089504
:10061000823019F4609332010895611160932D01C5
:100620000895662369F0813099F48091DD019091FD
:100630002F01891B681B60932F0182E080930B01BF
:1006400080912E01873418F086E480932E0108955E
:10065000635E60932E01F4CF60933301089520917F
:100660001D0130911E014FEF480F81E090E002C064
:10067000880F991F4A95E2F7662339F0822B932B56
:1006800090931E0180931D010895809582239323EA
:10069000F7CFCF93DF938CE091E09093BC018093F0
:1006A000BB0182E011DEF894D0E0C0E0E091BB0134
:1006B000F091BC01EC0FFD1F60812196CE010E94DC
:1006C0002314C932D10591F765EA90E080E00E94D9
:1006D00023147894DF91CF9108951092EB0180B1AB
:1006E00091B12091BD018295869586958370990F71
:1006F000990F890F820F8093BD018091E0018823BB
:1007000009F444C01092E0018091E9019091C20186
:10071000992329F01F981092EC011092E9018111A0
:100720005BC080910B01882391F18091E50190914C
:10073000E6019093E2018093E10160912D01675001
:10074000262F220F6AE171E00E94F413620F60937A
:10075000DF018091A2018823B9F181508093A20129
:100760008091C201811109C08EE884B981E0809333
:10077000E9011092EA018FEE83B980910B01882381
:1007800029F080910B01815080930B0108952091F5
:10079000C2018091E1019091E201222371F2209146
:1007A000E5013091E60143E0369527954A95E1F75A
:1007B000280F391F53E0969587955A95E1F7A901BF
:1007C000481B590BCA01B5CF613950F670E060E0A3
:1007D00084E014DD85E0C2CF813079F680910B0191
:1007E000882341F08091E7019091E8019093E40122
:1007F0008093E3012091E3013091E40160912F01A6
:10080000A901A6E056954795AA95E1F7062E000C9A
:10081000770B460F571F4E5051405093DE014093C7
:10082000DD01B5E036952795BA95E1F780910B018A
:10083000882301F130939301209392013093950125
:10084000209394013093970120939601309399015E
:100850002093980130939B0120939A0130939D013E
:1008600020939C0130939F0120939E013093A1011E
:100870002093A00180919101E82FF0E0EE0FFF1F7F
:10088000EE56FE4F40815181D901A41BB50BAD013D
:10089000318320838F5F877080939101CD01880F12
:1008A000991F880F991F820F931F20912E0130E00E
:1008B000261B370B225F3E4F220F331F821B930BE9
:1008C00023E0181619068CF401972150D1F7181659
:1008D000190634F557FD40C02091900112164CF4D2
:1008E000281B2093900104DD48CF009771F30196F7
:1008F000ECCF880F991FBC016350710977FF02C0CC
:100900006F5F7F4F759567951616170614F061E0B7
:1009100070E088E1861B8093900185E06FDCE3CF77
:100920008C3FBFEF9B07C4F457FF16C02091900186
:1009300027FF02C02450D4CF24EE281B209390011F
:100940002091DF01233978F26CEF7FEF681B790B80
:100950007595679586E0E2CF8091DF01823918F2C4
:1009600070E060E087E0DACF882321F0813031F059
:10097000829A05C0829892988A9808958298929A4D
:100980008A9A0895CF93C82F8091C001811109C020
:10099000CC2339F080913401C81718F4F3DF82E0DA
:1009A00093DC8091C20181110BC0C7DC91E0C111C1
:1009B00001C090E081E0C53608F480E0890FD4DF03
:1009C000C11123C08AB78F778ABF10922302109279
:1009D000220210926D0010926C0010926F00109223
:1009E0006E00689848988091C0018C138093BF0175
:1009F000C093C001C093BE0182E0C23020F081E00C
:100A0000CF3F09F480E0CF91F3CBE091C101F0E05A
:100A1000EE0FFF1FEE0FFF1FED59FE4F0190F0810B
:100A2000E02D8FEF8C0F0995DECFCF93C091C001E1
:100A300082E38C0F873908F080E0A4DF83E044DC98
:100A40008C2FCF919FCFCF93C091C00180E09ADFD0
:100A500083E03ADC8C2FCF9195CF8093B8019091B1
:100A6000C001282F291B981710F0292F281B30911F
:100A7000A501311106C030912101332369F02230E4
:100A800058F08093A60184E08093A40181E08093D4
:100A9000A5019093A701089575CF0F931F93CF934E
:100AA0009091DF012FEF290F203938F480E045DCE9
:100AB00080E0CF911F910F9157CFE82FEF702091D9
:100AC000AF01211129C0C82FC295CF7020913201EA
:100AD00030E043E0220F331F4A95E1F762177307B6
:100AE000E0F48091B90182171306BCF48823A9F0C1
:100AF00081E02091BF012F3008F480E021E0C23076
:100B000009F020E0822BC1E0C80F8091C201882348
:100B100009F45EC080E038C0C2E0E73010F4F0E0D5
:100B200016C0E730B9F40091890110E00F5F1F4F44
:100B3000EFDB65E00E94E8139801290F311DC90120
:100B400066E070E00E94081480938901FC01EF5771
:100B5000FF4F26C0E830C9F68091C20123E0811121
:100B60002FE030E062237323672B51F480918901D9
:100B700090E0019666E070E00E940814809389017D
:100B8000E0918901CCCF8E5FE82FF0E0EF5AFE4F65
:100B900020819217C0F73197E081F0E0E058FF4FD5
:100BA000E491C33071F48091880190E0019663E193
:100BB00070E00E94F41380938801825C9E4FDC01F8
:100BC000CC91CC2381F0C13079F0EE0FC2E00CC0A3
:100BD000CB019695879563E070E00E94F413FC01C9
:100BE000EE0FFF1FB4CFE0E08E2FA7DB8C2F61CF7D
:100BF000CF93DF939091C101981759F0C82FD091EE
:100C0000C00180E0BFDEC093C1018D2FDF91CF9185
:100C1000B9CEDF91CF910895E82FF0E08091C00127
:100C20008150990BE817F90719F1EE0FFF1FE857EC
:100C3000FF4F859194919093230280932202880F15
:100C4000892F881F990B9195809321029927909362
:100C50006D0080936C008AB780688ABF8091C00164
:100C6000811104C010926F0010926E00689A489A29
:100C70000895813019F410921A010895823019F400
:100C800060931B010895833019F46093190108954E
:100C9000843019F460930D010895853011F4609348
:100CA00021010895883041F41092AE011092AC01F8
:100CB0001092AB0180E00895813B81F48091AE01F8
:100CC0008150833048F483E08093AE018093AD017E
:100CD0001092AC011092AB0181E00895853BB1F414
:100CE000CB016EE370E00E94F413892B19F7809119
:100CF000AE018A3FF8F68B5F8093AE018093AD0121
:100D00001092AC011092AB0190DED4CF813021F76C
:100D10008091AB019091AC01019688382EE092074A
:100D200028F49093AC018093AB01C4CF1092AC0136
:100D30001092AB018091AE01882309F4BBCF8150A2
:100D40008093AE01B7CFFF920F931F93CF93DF93A2
:100D50008C01EB01F42E8091DB019091DC01892B59
:100D600031F0E091DB01F091DC0189E0099510930D
:100D7000DC010093DB01012B39F0E091DB01F09104
:100D8000DC01BE018F2D099581E08093BA01DF91CE
:100D9000CF911F910F91FF900895CF93DF93E09132
:100DA000CA01D0E0C0E0EE2351F0E150E093CA0167
:100DB000F0E0EE0FFF1FE553FE4FC081D181E091BF
:100DC000CA0190E080E0EE2341F0E150FF0BEE0F0E
:100DD000FF1FE553FE4F808191814AE070E060E0A3
:100DE000B2DFCE01DF91CF910895883039F41092AF
:100DF000A30110928A0180E0C5DD0CC0813001F5AD
:100E000090918A01911108C06032710518F08093A9
:100E10008A0150DA80E00895913081F46B3B7105CE
:100E200020F082E080938A01E6CF6115710591F38D
:100E3000660F660F862F88708E5EDECFAEDFEACF3C
:100E4000813811F0813E31F791E090938A01813E23
:100E500041F48091A301865F8093A3012BDA8BE498
:100E6000CBCF8091A3018F5FF7CF9C019091CA01F6
:100E7000983088F4E92FF0E0EE0FFF1FE553FE4FA6
:100E8000318320839F5F9093CA0148E0C9015BDFF3
:100E90008091CA0108958FEF08950F931F93CF9308
:100EA000DF93EC018B0179DFB801CE01DF91CF91A7
:100EB0001F910F91DACF813CD9F48091AA01609102
:100EC0000A01813031F0823051F481E090E01ADB88
:100ED000682F70E086E198E0E0DF80E0089566E941
:100EE00070E08330B9F370E060E08FE29CE0F4CF13
:100EF000813EC9F380E046DD82E01FDA81E034DD27
:100F0000ECCF883049F0813C49F41092A80170E0A0
:100F100060E08FE29CE0C1DF80E00895823C49F40C
:100F20008091A80190E00196817099278093A80193
:100F3000F3CF81E00895813C39F470E060E08FE206
:100F40009CE0ABDF80E00895823C29F470E060E033
:100F500083ED97E0F6CF81E00895843011F580911C
:100F6000DB019091DC012EE08A3C920731F469E1CB
:100F700070E086E198E091DF0DC08651984061F401
:100F80009091C001923040F0892F86959695969564
:100F9000890F63DD80E0089570E060E08FE29CE0FF
:100FA000EACF81E00895813C39F470E060E08FE29F
:100FB0009CE073DF80E00895823C29F470E060E0FB
:100FC00080E39BE0F6CF813B49F4CB016EE370E018
:100FD0000E94F413892B71F728DDECCF813E51F488
:100FE000CB016EE370E00E94F4136F5F60932C01FD
:100FF00050DBE0CF81E00895813C39F470E060E09F
:101000008FE29CE04ADF80E00895823C29F470E0A2
:1010100060E08BE997E0F6CF873B31F470E060E069
:101020008EE19BE022DFEFCF81E00895AF92BF9287
:10103000CF92DF92EF92FF920F931F93CF93DF93A4
:10104000D82F8B0180911C018093C101C0900901B0
:10105000E090080180910C01A090B701811102C0BD
:10106000AA24A394D0900D01809117018111D090F2
:101070001801DD2009F43DC041E0D41621F0809133
:101080000A018E15B0F1F6E9FF2EB090AE01B8015D
:101090008D2F08DEC091AE01CC2309F44BC2B110F4
:1010A00004C08091C0018093B6018D2F8D7F883060
:1010B00011F51092AA01DA3019F400910A0110E03A
:1010C000C016110630F4E016110619F010F0009366
:1010D0000A010639110521F480911701813019F4B4
:1010E000C80110DA082F802FB8DC81E08093050159
:1010F00041C0FE2CCACFD13C09F049C08091C0014B
:10110000863961F58091B3018130F1F41092B30119
:1011100080910A01A2DCC0911701C11109C2D33B21
:1011200009F0B6C1012B31F5DF2DD110D6E981E0F0
:1011300090E0E8D99091C0018913A4C181E0809327
:10114000B5018D2F8ADC17C08091B201813059F42E
:101150001092B20190E080E0D5D9DCCF8A3118F44A
:1011600081E08093B2011092B10170E060E08FE203
:101170009CE093DEC0E08C2FDF91CF911F910F9107
:10118000FF90EF90DF90CF90BF90AF900895D23C4A
:1011900061F580911701813089F1C091C001CF15AF
:1011A00078F490E080E0AED9C81306C081E0809367
:1011B000B2018F2D52DC0DC081E08093B301F9CFD5
:1011C0008091B101813039F480910A0146DC10929E
:1011D000B1010DDACFCF70E060E08FE29CE05DDE20
:1011E0001092B3011092B201F4CFD43C39F480E0F4
:1011F000C9DB70E060E08DE59BE0BBCF8FE48D0F35
:10120000823008F05EC080910C01882381F1C80112
:1012100068E170E00E94F413892B09F0ABCFC09114
:10122000A501C111A7CF2091C0010115110551F5EC
:10123000D23B11F58FEF80930501D091C0018091D1
:1012400005016A2D70E0082E000C990B0E94D7133F
:101250008D0F911D57D980930A01D81719F08E115F
:1012600001C0F1DB80910A01F8DBC1D984CF609124
:10127000140170E0C801CECF2E15E0F6C216E8F2D8
:1012800081E0D9CFE0911401F0E0CF0166E371E095
:101290000E94D7138017910710F42E1558F6CF012E
:1012A0006CE672E00E94D7138017910730F6C216E1
:1012B00008F4C3CFBADB70E060E08DE59BE0EDDDC4
:1012C000BCCF8FE18D0F823020F480910501819594
:1012D0000DCFD13009F085C00932110511F4D0933A
:1012E0000501CC2379F10091B60110E08C2F90E03C
:1012F000B8010E94D713EC01E091AD01F0E0BF010D
:101300000E940814262FCE01801B910BBF010E9462
:101310000814322F361B8091AB019091AC016EE323
:1013200070E00E94F413832F90E00E94D7136CE3C7
:1013300070E00E94F413261B09F421E02093BE0103
:101340002093B801C091BE012091C0014C2F421BD7
:10135000550BCA0160918D0170918E016F5F7F4FB7
:1013600070938E0160938D01009709F403CF40E0E4
:1013700052E097FF06C040E051E0233810F040E40F
:1013800050E05695479597FD01969595879500975E
:10139000C1F74617570708F0EDCEC217F0F4CFEFAC
:1013A000C20FE091C101F0E0EE0FFF1FEE0FFF1F33
:1013B000ED59FE4F0280F381E02D8FEF8C0F0995E0
:1013C000882331F0D091BE018C2FDCDAD093BE019E
:1013D00010928E0110928D01CDCE2C1710F7C1E026
:1013E000DFCFD530A9F48091C001833308F4C2CE99
:1013F00090E0801B910B8739910514F086E990E00D
:101400008233910514F482E390E08093BE01B2CE62
:10141000D630B1F48091C0012091B801821708F054
:10142000A9CE080F111D30E02017310734F09801C4
:101430000233110514F422E330E02093BE019ACE6A
:10144000D73069F49091BE018091C001891710F4E2
:101450008F5FDBCF981708F08DCE8150D6CFD63C6A
:1014600009F059CE81E090910C01911180E08093B8
:101470000C010FD9E8DA8091C00190E043D8809345
:101480000A0198CE9F115DCE81E08093B40159CEC0
:10149000D33EA9F48091B501813031F41092B501A9
:1014A00090E080E02FD84ECE8091B401813021F4BD
:1014B0001092B4018F2D46CE80910A0143CED33CC9
:1014C000E1F48091C00190910901891308C082E084
:1014D0008093AA0162E070E08BE597E032C0863924
:1014E00031F483E08093AA0163E070E0F5CF81E0FE
:1014F0008093AA0161E070E0EFCF70E060E08AE0E5
:101500009BE0D73B99F0DA3C59F48091C00180937D
:101510001A018091C10180931F01BBD886DA2BCEBE
:10152000DA3B31F470E060E082E19BE09EDC23CEA8
:10153000C1E021CEBB2009F4B8CD70E060E08FE2BD
:101540009CE0ABDC18CE0F931F93CF938B01C42F7D
:101550008830B9F48091C10180938C0110928B0185
:1015600080E010DA8091C30181112EC080918B013F
:101570008F5F80938B0170E060E085EF96E075DC13
:1015800023C0982F907F903B41F580918B014817A5
:1015900010F18150883040F49091B001992321F0EE
:1015A0009091C101891324DBC8016DE570E00E94B0
:1015B000F413069771F480918B018F5F80938B01F8
:1015C000C81710F088E3DED980E0CF911F910F910A
:1015D000089582E1F8CF80E0F6CF903E51F48091FB
:1015E0008B01882379F0481768F080918C0100DB2B
:1015F000C2CF8A3049F46091A30180918B01F90137
:10160000099547D8CADBE0CF8930F1F680918C018B
:10161000EFDADACF2EE332E043E095CF2EE332E08B
:1016200044E091CF29E336E045E08DCF2DE732E06D
:1016300041E089CF28E033E042E085CF21E133E08B
:1016400042E081CF2CE233E041E07DCF91E0909306
:10165000B0012FE233E048E076DF1092B001089548
:10166000CF93C0911701C11126C0813C41F470E0B5
:1016700060E08FE29CE011DC8C2FCF910895823CDA
:1016800029F470E060E08CEF97E0F5CF833C59F4EB
:101690008091200190E00196877099278093200126
:1016A0000E944903E9CF873B31F470E060E08AE1B2
:1016B0009BE0DBDBE1CFC1E0DFCF0F931F93CF9344
:1016C000DF93D82F8B018830C9F41092B90170E0F4
:1016D00060E080913101E1D9C0911701C11174C05E
:1016E000DA3B09F071C070E060E082E29BE0BDDBB4
:1016F0008C2FDF91CF911F910F910895813051F47C
:101700006931710548F18093C201B80180913101BE
:10171000C4D922C08330C1F48091B9018F3F19F040
:101720008F5F8093B90180911A01882371F38091B2
:101730001B0190E062EC71E00E94D71308171907B3
:1017400020F30E94ED02E1CF843C41F46ED970E0B9
:1017500060E08FE29CE0A1DBC0E0CACF873CA1F44F
:1017600090913101892F82958F708F5F8370829560
:10177000807F9F70892B8093310170E060E08DD96C
:101780000E94490352D9E8CF873BB1F481E08093AE
:10179000AF01CB018F739927892B09F0B6CF209128
:1017A0003101822F8F708F5F207F6BE00E94E813E2
:1017B000922B90933101A9CF873E09F08DCF1092E3
:1017C000AF010E944903C8CFC1E092CFCF93833CC1
:1017D00031F54091C10160911D0170911E01842F6E
:1017E00098E0282F30E02F5F3F4F27703327822F5C
:1017F000FB0102C0F695E7952A95E2F7E0FD02C0ED
:10180000915079F74817B9F0F3D98091C1018093CD
:101810001C010E944903C0E08C2FCF910895C09114
:101820001701C11108C0893B31F470E060E086E225
:101830009BE01BDBF1CFC1E0EFCF90912101992319
:1018400069F08093A60188E08093A40181E08093F1
:10185000A5018091C0018093A701089593C80F93BB
:101860001F93CF938B01883011F58091B2018130A5
:10187000B9F480E087D81092B2018091A501082BBD
:101880001092B90180911C018093C1011092AE01A8
:10189000012B49F0C0E08C2FCF911F910F9108953B
:1018A00080E0CBDFEACF81E08093C201F3CF8130CB
:1018B00051F46931710570F3C091A501C111EACFEE
:1018C0008093C201E8CF833059F58091B9018F3FF1
:1018D00019F08F5F8093B90180911A01882359F024
:1018E00080911B0190E062EC71E061D70817190745
:1018F00010F00E94ED02B80180913001CED88091A5
:101900003301882339F290E062EC71E050D7801700
:10191000910708F0BFCF70E060E08DE59BE017C055
:10192000813BB9F481E090E00E94820286DF8091E1
:1019300019018111AFCF80910C01811104C00831D0
:10194000110508F4A7CF61E070E086E198E0A5DA20
:10195000A1CF813EC1F360910A0170E0813CA9F3FF
:10196000833B99F41092B90180910D019091170178
:10197000911180911801811106C086E990E00E94C2
:1019800082025BDF87CF86E9FCCF833E11F480E0E3
:10199000F8CF823C31F481E08093B10166E970E0D8
:1019A000D4CF833919F41092A501F1CF853C51F4BD
:1019B00090911701913009F47CC070E060E080E301
:1019C0009BE0C5CF843C39F490911701913009F424
:1019D00070C02BD8A0CF8D3B41F4F89488ED8FBD1B
:1019E00088E880BF7894A895FFCF8F3C51F4909100
:1019F0001701913009F45DC070E060E086E093E08B
:101A0000A6CF8A3BA1F40115110509F052C0C0917F
:101A10001701CC2331F009D8109217010E94490315
:101A200039CF70E060E08EE09BE01FDA34CF843B7A
:101A300049F4909117019130E1F170E060E08AEC97
:101A40009EE085CF873CA9F490913001892F829543
:101A50008F708F5F83708295807F9F70892B8093BA
:101A6000300170E060E019D80E9449030E9415051A
:101A700011CF873BC9F481E08093AF01C8018F7318
:101A80009927892B59F420913001822F8F708F5F15
:101A9000207F6BE09DD6922B90933001B80180910E
:101AA00030010E944D05F6CE873E19F41092AF0129
:101AB000B5CFC0911701C11123C08A3C71F40E94B7
:101AC000150590E080E00E94820280930A0181E087
:101AD000809317010E944903DECE833C41F41092AB
:101AE000AA0170E060E08BE597E0D7D9D4CE893BBE
:101AF00039F4012B29F470E060E086E19BE095CF9A
:101B0000C1E0C9CE0F931F93CF931092C50180916E
:101B10001D0290911E029C012F5F3F4F88279078F5
:101B2000822B932B90931E0280931D029091C301F0
:101B30002FB1822F8095881F8827881F8093C3012B
:101B40009817B9F01092C2018093C30190911F02BF
:101B5000892F27FD3FC080699F709F30C9F5809312
:101B60001F0290E080E00E94560110921E02109227
:101B70001D0200911D0210911E028091C201882356
:101B8000B1F1B80183E00E94FE000E941801013407
:101B9000110520F00F701127012BB1F410928F0165
:101BA00081E08093EC010E94780180918F01811186
:101BB00005C08FEE83B981E08093E00180918F01B1
:101BC0008F5F8F7180938F01CF911F910F91089537
:101BD0008F5FC5CF8F7E95FD08C0806880931F0200
:101BE00080911D0290911E02BECF806CF7CFC091F4
:101BF0001F028C2F807F70E060E0803B09F0B8010D
:101C000081E00E94FE00C4FF12C0C801C5FD0CC0E7
:101C10000831110550F210921E0210921D02C0628E
:101C2000C0931F0290E080E00E945601BECFCC23FB
:101C300009F4BBCFC5FF03C00E945A01B6CF0231E1
:101C4000110508F4B2CFC064C0931F0290E080E099
:101C50000E945601F1CF8091EB0181110E946D032A
:101C60008091C50181114ECF0895EF92FF920F939D
:101C70001F93CF93DF93EC0108E017E082ECE82E8E
:101C8000FF24F394209741F481E0DF91CF911F91DD
:101C90000F91FF90EF9008958091BA01811117C0C4
:101CA0008091C001823070F482E00E94F800C70188
:101CB0000197F1F780E00E94F800CDDF0E94180143
:101CC0002197E0CF80E00E94F800C801F1CF80E0CA
:101CD000DCCF0F931F93CF93DF93C82F06EA8111B8
:101CE00002C00CE0C1E0D091C10110E08091200160
:101CF0000E94F80582E30E94C204D093C101C8018A
:101D0000B4DF809120010E94F80580E00E94C204A7
:101D1000D093C1018AEF90E0A8DFC15039F78D2F31
:101D20000E94F8058AE992E0DF91CF911F910F910F
:101D30009CCFCF93DF9364E64BD5282F892F6AE0A1
:101D400047D5EC01222341F0822FC3DF8C2FC1DF66
:101D50008D2FDF91CF91BDCFC111F8CFF9CFCF93A8
:101D6000DF93D82FC3E080910A010E94C20488EC5F
:101D700090E07BDFDD2319F080E991E076DF80E001
:101D80000E94C20488EC90E070DFC15061F7DF91DF
:101D9000CF910895FF920F931F93CF93DF93D82F86
:101DA0008B01C091A901C43079F4F090AE010E947A
:101DB0005206FF20A1F08091AE01811110C070E0A9
:101DC00060E08FE29CE069D8D83071F0D13C09F036
:101DD0000EC170E060E08FE29CE05FD80CC0D830AC
:101DE00061F481E080930301809122018093A90135
:101DF00081E08093040180E061C1D23C69F41092DB
:101E0000AE018C2F90E0019666E070E001D58093E2
:101E100022018093A901FDC0D13BC1F48091020150
:101E2000012B41F49FEF863618F4823018F491E0CC
:101E30009093030190910301890F21F481E0809335
:101E40000201D9CF8736D8F386E6F9CFD13E59F4CF
:101E50008091030181958093030180910401819514
:101E600080930401D6C0D23BE1F481E0809303016A
:101E700080910201823018F081508093020181E04C
:101E800080930401C23008F00CC100FDB4CFEC2FE8
:101E9000F0E0E45FFE4F858D8F3F09F4ACCF8F5F9C
:101EA000D6C0D13009F010C10932110511F4D09318
:101EB000030190918701892F880F97FD809590E00D
:101EC00069E070E074D4292F80918601682F660F35
:101ED00087FD60958091010170E090E068D4290F42
:101EE00080918501682F660F87FD609580910001C4
:101EF00070E090E05CD4622F690F80910201680F5E
:101F00007727771F8091AE01813091F48091AB01EA
:101F10009091AC0125E0969587952A95E1F724E705
:101F200030E0A901481B590BCA0141D4B9015CD466
:101F3000862F0E94C20400FD09C00E948801982FCC
:101F4000917080918701890F80938701809186012C
:101F500090918401890F809386010E94880165E237
:101F600037D480918501980F909385010E94880154
:101F70008F7331F40E9488016DE02AD4909384011C
:101F8000C0910101CC2339F00E9488018F7319F4AC
:101F9000C150C09301010E948801811108C00E94B4
:101FA00088016EE015D49093010110928601C091D2
:101FB0000001C33038F00E9488018F7119F4C150BC
:101FC000C09300010E9488018F7729F40E94880144
:101FD0008770809300010932110519F481E0809324
:101FE00004018091BD01080F0093BD0104CFD23CD4
:101FF00009F407CFD33C81F48091C1018F5F8770D2
:102000000E94F805EC2FF0E0E45FFE4F8091C101E3
:10201000878B0E944903EFCED43C21F48C2F90E0B3
:102020000596F2CED13B59F5C23098F400FDE3CECF
:10203000EC2FF0E0E45FFE4F858D90910401891B49
:10204000883020F08F3F19F48EEF01C088E0858F33
:10205000D2CEC53009F0CFCE80912B0190910401F2
:10206000890F823040F482E080932B0180912B0114
:102070000E94C204C0CE8937B8F388E7F5CFD13EBD
:1020800009F4EBCED23B09F4FACED23E11F2D53CA4
:1020900089F470E060E08BE597E00E944D0780E0F6
:1020A000E7CFC53009F0A7CE80912B018330F0F245
:1020B0008150DACF81E0D13009F48DCFDF91CF911B
:1020C0001F910F91FF900895D13C09F093CF81CEDD
:1020D0001F920F920FB60F9211242F933F938F935D
:1020E0009F93AF93BF93EF93FF938091EA0188236F
:1020F000E9F0E091E90120B131B1F0E0EE0FFF1F0E
:10210000DF01AB51BE4F2D933C93EF51FE4F8081C9
:1021100091818217930708F401962817390708F46C
:1021200001979183808381E08093EB0181E080932C
:10213000EA01FF91EF91BF91AF919F918F913F91F4
:102140002F910F900FBE0F901F9018951F920F9216
:102150000FB60F9211248F9381E08093C5018F9168
:102160000F900FBE0F901F9018951F920F920FB6F1
:102170000F9211248F9381E08093C4018F910F906F
:102180000FBE0F901F9018951F920F920FB60F92CF
:1021900011242F933F938F939F938091210290E07E
:1021A00090936D0080936C00209122023091230265
:1021B000822F8F7790912002890F220F232F221FC9
:1021C000330B3195982F991F9927991F290F209329
:1021D00021028F77809320029F918F913F912F91C1
:1021E0000F900FBE0F901F901895F89485B7877FBA
:1021F00085BF90E088ED0FB6F894A8958FBD90B795
:10220000977F90BF0FBE81E088B989E08CB98CE3DD
:1022100080BB82EA8093720081E1809371008FEF2E
:1022200090E0909369008093680080E882BB87BD4E
:102230008CB788608CBFA89580E480BF0E9478012D
:10224000789481E00E94640170E060E08DEA97E09C
:102250000E9435071092BA010E9415059FB1892F7F
:102260008095881F8827881F8093C30197FFA8C087
:102270008CE091E09093BC018093BB0182E00E94CE
:102280006401F89490E080E0D6D2853A79F4009128
:10229000BB011091BC01C1E0D0E0CE01CCD2F8016D
:1022A00081938F012196CA32D105B9F77894809134
:1022B0001A0181110E94ED0270E060E086EE9BE061
:1022C0000E94350761E070E08FE29CE00E943507D4
:1022D00042E0242E50E4352E5524539467E0462ED8
:1022E000CC24C394D12CEFE28E2EECE09E2EFFE79F
:1022F0006F2EF0E07F2E0E9418018091C80190910E
:10230000C901009751F06091C6017091C7010E9408
:102310004D071092C9011092C8018091C201882313
:1023200049F180E00E94C204A895F3E4F0BF1F9831
:102330009FB1892F8095881F8827881F8093C301AC
:1023400097FFF6CF0E945A018CB788608CBF10921D
:10235000EB011092C5011092C4018091C20181115C
:1023600064C020920B018CB7877F8CBF0E947801DC
:10237000A89530BE70DC1092BA018091DB0190917B
:10238000DC0123E08630920709F086C0C0E7D0E088
:10239000FE018491805310E0803108F06DC099DC1B
:1023A0008CE291E062DC21966C167D0689F79092B2
:1023B000C9018092C8011092C7011092C6019BCF3B
:1023C000C0E08C2F0E94C20483E190E04EDC8C2F91
:1023D00086950E94C20483E190E047DC9FB1892F7B
:1023E0008095881F8827881F8093C30197FD1AC096
:1023F000CF5FC03431F765E181E00E9411030E9494
:102400004903C6E98C2F0E94C20484E090E02DDCD1
:10241000C150C1F72DCF8C2F0E94C2048DE090E0F7
:1024200024DCC150C111F7CF23CF8091EC01882368
:10243000F9F086B78F79806286BF86B7806186BFE4
:10244000889586B78F7E86BF8091C40181111092D6
:10245000C2018091EB01882321F05092E0010E949B
:102460006D038091C501882309F477CF4BDB75CFCD
:1024700086B78F798064E0CF812F8295880F807234
:102480000E94C20480E190E0F0DB1F5F1931A1F7E8
:102490008AE992E0EADB84CFFEE08A3C9F07F9F00C
:1024A00027E08B35920709F0E6C08091210188234F
:1024B00009F472C18091A501882309F46DC12091AE
:1024C000C0013091A601231348C1822F0E94C2048B
:1024D0001092A5018091A7018093BF010CCFC091FC
:1024E000A901EC2FF0E0E45FFE4F87898093C101E2
:1024F000C230B9F118F1C33009F452C0C53009F047
:10250000FACEC0912B01CC0FC73908F0C6E9D4E050
:102510008C2F0E94C20485E090E0A7DB80912B0104
:102520000E94C20481E490E0A0DBD15089F780EDE5
:1025300092E09BDB80E00E94C204DDCED58D86E96F
:102540000E94C20483E090E0CC2319F08D2F869581
:1025500090E08BDB80E00E94C2048D2F90E085DB51
:10256000CACED0910A01C0E081E0CC2319F0C53079
:1025700019F485E00E94F8058D2F0E94C20481E2C3
:1025800090E073DB80E00E94C20482E490E06DDBA7
:10259000CF5FCA3049F780911C018093C101ABCE57
:1025A0000E9488018F73E82EF12C0E948801642D0F
:1025B0000FD1E60102C0CC0FDD1F9A95E2F70E9411
:1025C000880165E005D1F60102C0EE0FFF1F9A9564
:1025D000E2F7CE0FDF1F0E94880190E0BE0118D104
:1025E000C80FD91FC739D10514F0C6E9D0E08C2F28
:1025F0000E94C204C70139DB8E0133E015950795AF
:102600003A95E1F70023A9F110E0C7012EDB5E0146
:10261000A01AB10AE501B7FE02C0D0E0C0E08C2FDD
:102620000E94C2040E948801837039F4C7011DDB37
:10263000CE01959587950E94C204F2E0AF16B104D1
:1026400024F70E9488016DE0C3D0860102C0000F0C
:10265000111F9A95E2F70E948801E801219790E006
:10266000C823D923C00FD11F80E00E94C204CE012D
:1026700076CF01E0C9CF27E08138920719F5809124
:10268000A801811138CEC8E086E90E94C20484E125
:1026900090E0EBDA80E00E94C20489E290E0E5DAA3
:1026A000C15091F7C8E086E90E94C20489E290E037
:1026B000DCDA80E00E94C20482E590E0D6DAC15004
:1026C00091F719CE3BE080339307B9F488EE93E09D
:1026D000CCDA8091DF01C5E06C2F7AD02ADB8091C3
:1026E000DF016C2F75D0892F880F23DB80911701B4
:1026F00081115DCE88EE93E032CFE7E08C3F9E07FC
:1027000021F48091DD0115DBF5CFF7E0833D9F07D4
:10271000B9F48091C3018111EECD80910A010E942C
:10272000C20484E690E0A1DA80E00E94C2048091B5
:102730002C0190E068EE73E03AD0845691090FCFF7
:102740008B59974009F0B1CE80E009DB81E007DBCF
:1027500080E005DB80ED97E002CF6091A4012317B4
:1027600060F4832F821B34D0811101C081E0820F7D
:102770000E94C2048AE090E0F2CE862F90E06EE1E3
:1027800070E015D06091A701631B70E041D0EB01B0
:1027900021968FEF820F69CF86B78F7986BF86B774
:1027A000806186BF889586B78F7E86BFA4CD0024C2
:1027B000552704C0080E591F880F991F009729F04C
:1027C00076956795B8F37105B9F7802D952F089523
:1027D000991B79E004C0991F961708F0961B881F73
:1027E0007A95C9F780950895AA1BBB1B51E107C0D4
:1027F000AA1FBB1FA617B70710F0A61BB70B881F91
:10280000991F5A95A9F780959095BC01CD0108951F
:1028100097FB072E16F4009406D077FD08D0E4DF6E
:1028200007FC05D03EF4909581959F4F08957095D3
:1028300061957F4F0895E199FECF1FBA8EBBE09A54
:1028400099278DB30895262FE199FECF1FBA8EBB2D
:10285000E09A81500DB2021639F01CBA2DBB0FB6AA
:0E286000F894E29AE19A0FBE0895F894FFCF23
:10286E00080E18010101000496084602000108082E
:10287E000896961E0207030100011E0500010000C6
:10288E00010104000000000000294332020732005B
:10289E0013190100080504030E01110114010201B0
:1028AE000000000000000001000000000000000019
:1028BE000100009101A502AF03B904C305CD06DCEA
:1028CE0007FF070C061702EB011502F1011502F7BF
:1028DE00011502FD01150203021502090215020F70
:0428EE0002150200CD
:00000001FF
