:10000000DAC00000F5C000000C94FF0FF1C0000042
:10001000EFC000000C94F90FEBC00000E9C0000035
:10002000E7C000000C940510E3C00000E1C0000030
:10003000DFC00000DDC000000C94BD0FD9C000007F
:10004000D7C00000D5C00000D3C00000D1C0000060
:10005000CFC00000CDC00000CBC00000C9C0000070
:10006000C7C00000C5C00000C3C00000C1C0000080
:10007000303237332E302E32362D30372D3230326B
:1000800034000001050414101115000001000200E5
:100090000300040005000600070009000A000C0028
:1000A0000E0011001300160019001C00200024008F
:1000B00029002D00320038003E0045004C0054005D
:1000C0005C0065006E00790084008F009C00A90030
:1000D000B800C700D700E800FB000E01230139017A
:1000E0005001680182019E01BA01D901F9011B0288
:1000F0003E0264028B02B502E0020E033D03700370
:10010000A403DB03150451049004D10416055E0515
:10011000A905F70548069D06F5065107B10714081D
:100120007C08E7085709CB09440AC10A430BCA0BEC
:10013000560CE70C7E0D190EBB0E620F0F10C1108E
:100140007B113A120013CC13A0147A155C164517D4
:1001500035182D192D1A351B451C5E1D801EAA1F32
:10016000DD201A226023B02409266D27DB28532ABC
:10017000D72B652DFF2EA43054321134DA35AF372A
:100180009139803B7D3D863F9E41C343F7453948C9
:100190008A4AEB4C5A4FDA5169540957B9597A5C7B
:1001A0004D5F316227652F68496B776EB7710B75AC
:1001B0007378EF7B807F11241FBECFEFD4E0DEBFCA
:1001C000CDBF11E0A0E0B1E0E4E0F7E202C00590AD
:1001D0000D92A438B107D9F722E0A4E8B1E001C03C
:1001E0001D92AE31B207E1F70E9430100C946B13F0
:1001F00007CFF89498ED9FBD83BF78940895482F5A
:10020000362F272FE7EEF1E090E0808181110DC0BD
:10021000892F90E063E070E00E940713FC01E95130
:10022000FE4F40833183228308959F5F3396903140
:1002300061F70895BC0180911902E1CF1092190273
:10024000109218021092170281E08093B401089571
:100250000F931F93CF93C82F08EA17E0C15020F4E3
:10026000CF911F910F91089582E0C3DFC8010197DC
:10027000F1F780E0BEDFF2CF86E884B9E1E6F0E096
:1002800080818260808388E082B91092E3011092BD
:10029000E4018FEE83B90895E0910601F091070122
:1002A0003196FB70F460F0930701E09306018091B2
:1002B000B7018B5A8093B701E4918091B7018E0FFB
:1002C0000895811521F0813031F0829A05C082981D
:1002D00092988A9808958298929A8A9A08950F938C
:1002E0001F93CF93DF9300D00F92CDB7DEB720914D
:1002F0008001309181014091820129833A834B83AF
:10030000FE01319640E050E0682F70E0A1E0B0E0DF
:100310009B01042E02C0359527950A94E2F7922F8F
:10032000937021918D0102C0000F111F2A95E2F7F1
:100330009801911529F09130D1F080B3802B1BC02A
:1003400080B32095822380BB82B3822382BB81B39A
:10035000822381BB4E5F5F4F46305105C9F60F9037
:100360000F900F90DF91CF911F910F91089590B34F
:10037000802F8095892380BB82B3822B82BB81B37F
:10038000822BE7CF811511F082E0A9CF81E0FDCF6C
:10039000811511F08AE0A3CF85E0FDCF811511F022
:1003A00088E09DCF84E0FDCF811511F088E297CFE2
:1003B00084E1FDCF811511F080E291CF80E1FDCF86
:1003C000811511F082E28BCF81E1FDCF811511F013
:1003D0008AE285CF85E1FDCF81E00895CF93C82FD4
:1003E0008091BA01811109C0C11539F080913401A1
:1003F000C81718F4F3DF82E02BDF8091BC01811174
:100400000BC06DDF91E0C11101C090E081E0C73405
:1004100008F480E0890F55DFC11123C08AB78F77B8
:100420008ABF10921D0210921C0210926D00109251
:100430006C0010926F0010926E006898489880913E
:10044000BA018C138093B901C093BA01C093B8016B
:1004500082E0C23020F081E0CF3F09F480E0CF910C
:10046000C8CEE091BB01F0E0EE0FFF1FEE0FFF1FC3
:10047000E05AFE4F0190F081E02D8FEF8C0F09952F
:10048000DECFE82FF0E02091BA012150330B821724
:10049000130619F1EE0FFF1FE657FF4F8591959157
:1004A00090931D0280931C02880F892F881F990B3F
:1004B000919580931B02992790936D0080936C0017
:1004C0008AB780688ABF8091BA01811104C01092F6
:1004D0006F0010926E00689A489A0895E82FF0E035
:1004E000EE0FFF1FE657FF4F4591559120911C02DB
:1004F00030911D02932F969580E02417350778F4EC
:100500002F5F3F4F8F5F9817C0F730931D022093E6
:100510001C0281E02417350709F080E00895421796
:10052000530780F721503109EDCFCF93DF9300D0EF
:1005300000D000D0CDB7DEB72091D5013091D601E3
:100540002256384079F090910C01843069F4609320
:1005500018010F900F900F900F900F900F90DF9158
:10056000CF91089592E0F1CF611599F3823019F49B
:1005700027E9261B622F26E0E5E3F1E0DE01119674
:1005800001900D922A95E1F7FE013196E80FF11DD9
:10059000E80FF11D32970190F081E02DE90FF11D78
:1005A0006083D7CF813011F4609334010895CF92E6
:1005B000DF92EF92FF920F931F93CF93DF93EC01A3
:1005C00060910C0190911701E62F9111E2E0F0E0AB
:1005D000E45FFE4F22812093090185818093080109
:1005E000E92FF0E0E45FFE4F3185422F50E06115C6
:1005F00081F0313071F4480F511D55954795842F86
:10060000DF91CF911F910F91FF90EF90DF90CF90EE
:100610000895C417D507A4F18C171D068CF361113A
:1006200002C08C2FEDCF821B432F4150550B7A0116
:10063000C82ED12CC601BA010E9438136093B101B3
:10064000822F00E010E040E06695E62FF0E04317CF
:10065000B9F2C801B7010E942413822F860F0C0D36
:100660001D1DA82FB0E0BE01681B710977FF03C0F4
:10067000BD016C1B7D0BE617F70714F64F5FE7CF44
:10068000822FBECFECE0F1E0868580930A0183895A
:10069000808B8093BB0108958091AD01811551F04D
:1006A0009091BA019093B0018093AC011092AB018C
:1006B0001092AA0108950F931F93CF939B0140912D
:1006C000D9019FEF940F903938F480E008DE80E084
:1006D000CF911F910F91F5CDE82FEF709091AE0162
:1006E000911129C0C82FC295CF708091320190E03E
:1006F00053E0880F991F5A95E1F768177907E0F4DE
:100700005091B30158171906BCF45115A9F081E0B6
:100710009091B9019F3008F480E091E0C23009F077
:1007200090E0892BC1E0C80F8091BC01811509F4CC
:1007300063C080E03AC0C2E0E73010F4F0E016C0D9
:10074000E730B9F40091890110E00F5F1F4FA4DD7D
:1007500065E00E9418139801290F311DC90166E058
:1007600070E00E94381380938901FC01ED57FF4F20
:1007700028C0E830C9F68091BC01811113C083E024
:1007800090E082239323892B51F48091890190E09A
:10079000019666E070E00E94381380938901E09131
:1007A0008901CCCF8FE0ECCF8E5FE82FF0E0E25BE9
:1007B000FE4F90814917C0F73197E081F0E0EE5786
:1007C000FF4FE491C33071F48091880190E001966D
:1007D00063E170E00E94241380938801855C9E4F42
:1007E000DC01CC91C11599F0C13011F0EE0FC2E0DF
:1007F0008E2F75DD8C2F6CCFC9019695879563E0A0
:1008000070E00E942413FC01EE0FFF1FAFCFE0E069
:10081000EFCFCF93C091BA0182E38C0F873908F0F4
:1008200080E0DCDD83E014DD8C2FCF91D7CDCF933A
:10083000C091BA0180E0D2DD83E00ADD8C2FCF9138
:10084000CDCD81E00895611569F0813099F48091F2
:100850002F019091D701891B860F80932F0182E091
:1008600080930B0180912E01873418F086E48093E9
:100870002E010895635E60932E01F4CF60933301DF
:10088000089540911D0150911E01815021E030E0FA
:10089000F90102C0EE0FFF1F8A95E2F7CF01611543
:1008A00039F04E2B592B50931E0140931D01089592
:1008B000809548235923F7CFCF93DF938CE091E0C5
:1008C0009093B6018093B50182E0C2DCF894C0E059
:1008D000D0E0E091B501F091B601EC0FFD1F608111
:1008E0002196CE010E945913C932D10591F765EACC
:1008F00080E090E00E9459137894DF91CF910895A1
:100900001092E50180B191B12091B7018295869551
:1009100086958370990F990F890F820F8093B70185
:100920008091DA01811509F444C01092DA018091B6
:10093000E3019091BC01911529F01F981092E601F6
:100940001092E30181115BC080910B01811591F13F
:100950008091DF019091E0019093DC018093DB01B5
:1009600060912D016750262F220F6AE171E00E94ED
:100970002413620F6093D9018091A2018115B9F10E
:1009800081508093A2018091BC01811109C08EE841
:1009900084B981E08093E3011092E4018FEE83B982
:1009A00080910B01811529F080910B01815080937A
:1009B0000B0108952091BC018091DB019091DC0135
:1009C000211571F22091DF013091E00143E036956D
:1009D00027954A95E1F7280F391F53E0969587959B
:1009E0005A95E1F7A901481B590BCA01B5CF6139E6
:1009F00050F660E070E084E002DC85E0C2CF813038
:100A000079F680910B01811541F08091E10190917F
:100A1000E2019093DE018093DD018091DD019091F0
:100A2000DE01A0912F019C01B6E036952795BA957D
:100A3000E1F70A2E000CBB0B2A0F3B1F2E50314052
:100A40003093D8012093D70125E0969587952A9574
:100A5000E1F720910B0121113CC020919101E22F7F
:100A6000F0E0EE0FFF1FEE56FE4F40815181BC01BA
:100A7000641B750BAB01918380832F5F27702093DC
:100A80009101660F771F660F771F680F791F80919E
:100A90002E0190E08A1B9B0B825F9E4F880F991F4F
:100AA000681B790B83E016161706A4F561507109CF
:100AB0008A95C9F7161617060CF045C057FD62C097
:100AC00080919001181664F5861B80939001D4DB09
:100AD00067CF9093930180939201909395018093B7
:100AE000940190939701809396019093990180933C
:100AF000980190939B0180939A0190939D0180931C
:100B00009C0190939F0180939E019093A1018093FB
:100B1000A001A3CF6115710559F26F5F7F4FC8CF58
:100B2000660F771F653071055CF06350710975952C
:100B3000679588E1861B8093900185E060DBC7CFD5
:100B400061E070E0F6CF6C3F8FEF7807DCF457FF81
:100B500019C08091900187FF02C08450B5CF84EE08
:100B6000861B809390018091D901833908F4AFCF1F
:100B70008CEF9FEF9C01261B370BB901759567958C
:100B800086E0DCCF8091D901823908F4A0CF60E003
:100B900070E087E0D3CFCF93DF93C82F8091BB0164
:100BA0008C1751F0D091BA0180E018DCC093BB01E2
:100BB0008D2FDF91CF9112CCDF91CF9108958130AD
:100BC00019F410921A010895823019F460931B01F0
:100BD0000895833019F4609319010895843019F44D
:100BE00060930D010895853011F4609321010895FB
:100BF000823019F4609332010895611160932D01E0
:100C000008958093B2019091BA01282F291B98175B
:100C100010F0292F281B3091A501311106C0309109
:100C20002101311569F0223058F08093A60184E04B
:100C30008093A40181E08093A5019093A70108957A
:100C4000CDCBEF92FF921F93CF93DF937C01D62FF2
:100C5000C72F142F8091D5019091D601892B31F0A7
:100C6000E091D501F091D60189E00995F092D60185
:100C7000E092D501EF2841F0E091D501F091D60145
:100C80006D2F7C2F812F099581E08093B401DF9136
:100C9000CF911F91FF90EF900895282FCB0128301E
:100CA00039F41092AD011092AB011092AA0108958F
:100CB000213B59F48091AD0181508330B8F583E038
:100CC0008093AD018093AC01EECF253BA1F46EE3A0
:100CD00070E00E942413892B49F58091AD018A3F71
:100CE00028F58B5F8093AD018093AC011092AB012E
:100CF0001092AA018ECD2130C9F48091AA01909161
:100D0000AB01019688382EE0920728F49093AB014E
:100D10008093AA0108951092AB011092AA018091CC
:100D2000AD01811519F081508093AD010895EF92C6
:100D3000FF921F93CF93DF931091E701111106C02B
:100D4000DF91CF911F91FF90EF900895E090E8011F
:100D5000F090E901C091C401C1500C2E000CDD0BD4
:100D6000C7FD0EC0FE01EE0FFF1FEB53FE4F0190BB
:100D7000F081E02DB701812F099521978111F0CFE6
:100D8000E7EEF1E083818083848195819283818382
:100D9000339682E0E431F807A9F71092140210921A
:100DA000160210921502C8CFE091C401E11529F096
:100DB000E150E093C401E11106C080E090E04AE018
:100DC00060E070E03ECFE150FF0BEE0FFF1FEB53F2
:100DD000FE4F80819181F3CF883039F41092A301C6
:100DE00010928A0180E0FADA0CC08130F1F490911F
:100DF0008A01911108C06032710518F080938A0150
:100E00001DDA80E00895913071F46B3B710520F09C
:100E100082E080938A01E6CF61FB882783F98E5EAA
:100E2000672B79F3E0CFC0DFECCF813859F481E054
:100E300080938A018091A3018F5F8093A301FED9E3
:100E40008BE4D1CF813EE9F681E080938A018091E5
:100E5000A301865FF2CF2091C401283068F4E22F0D
:100E6000F0E0EE0FFF1FEB53FE4F808391832F5F67
:100E70002093C40148E0E5CE08950F931F93CF93CC
:100E8000DF93D82FC92F8B018FDFB8018D2F9C2FB7
:100E9000DF91CF911F910F91DECF282FCB01213C05
:100EA00039F460E070E084EA9BE0E7DF80E00895D9
:100EB000223C29F460E070E088E499E0F6CF213B21
:100EC00041F46EE370E00E942413892B79F7A1DCD2
:100ED000EDCF213E49F46EE370E00E9424136F5F72
:100EE00060932C01E9DCE2CF81E00895843011F5B4
:100EF0008091D5019091D6012EE08532920731F490
:100F000069E170E084E799E0B8DF0DC0845799404B
:100F100061F49091BA01923040F0892F86959695B0
:100F20009695890F6EDE80E0089560E070E084EAB7
:100F30009BE0EACF81E00895813C39F460E070E005
:100F400084EA9BE09ADF80E00895823C29F460E027
:100F500070E08DE497E0F6CF81E00895883049F0A5
:100F6000813C49F41092A80160E070E084EA9BE0C3
:100F700084DF80E00895823C49F48091A80190E0EC
:100F80000196817099278093A801F3CF81E008959D
:100F90001F93CF93DF93162FD72FC42FF9018830DB
:100FA000C9F48091BB0180938C0110928B0180E089
:100FB00015DA8091BD01811158C080918B018F5F3E
:100FC00080938B0160E070E08CEE96E0DF91CF9132
:100FD0001F9141CF982F907F903B39F580918B01E5
:100FE000481708F18150883040F49091AF01911575
:100FF00021F09091BB018913CEDD812F9D2F6DE5EE
:1010000070E00E942413069761F480918B018F5F3A
:1010100080938B01C81748F188E3DF91CF911F912E
:10102000DDC982E1FACF80E0F8CF903E51F48091A3
:101030008B01811571F0481760F080918C01ABDD58
:10104000C1CF8A3051F46091A30180918B01099541
:1010500033DCDF91CF911F91A7CE893031F480919D
:101060008C01DF91CF911F9196CDDF91CF911F9190
:10107000089591E09093AF0121E434E048E088DFE7
:101080001092AF0180E008952EE334E041E080DF6C
:1010900080E0089523E234E042E07ADF80E00895C2
:1010A00028EF35E042E074DF80E0089522ED32E081
:1010B00041E06EDF80E008952FED35E045E068DF28
:1010C00080E0089525E932E044E062DF80E00895A1
:1010D00025E932E043E05CDF80E00895833C29F5B8
:1010E0005091BB0160911D0170911E01952F48E048
:1010F000892F90E001969C0127703327922FFB01E6
:10110000022E02C0F695E7950A94E2F7E0FD02C0D0
:101110004A9571F75917A9F0822F3DDD8091BB01E7
:1011200080931C01C9DB80E0089590911701911113
:1011300008C0893B31F460E070E089E398E08BDE21
:10114000F2CF81E008950F931F93CF93C82F8B01A7
:10115000883CF0F4833B98F48330B1F18830F1F0AF
:10116000813021F180911701811190C0CA3B09F0B3
:101170008DC060E070E084E498E06DDE20C0EDE4B6
:10118000E80FE53178F7F0E0E359FC4E0C944B138F
:10119000873E41F71092AE018FDB11C01092B30170
:1011A00060E070E08091310186DADCCF6931710551
:1011B00030F08093BC01B801809131017CDA80E08D
:1011C000CF911F910F9108958091B3018F3F19F036
:1011D0008F5F8093B30180911A01811561F3809133
:1011E0001B0190E062EC71E00E94071308171907D9
:1011F00010F348DAE0CF0DDB60E070E084EA9BE0BA
:101200003CDEDDCF60910A0170E084E799E0F8CF21
:101210000EDB1092190261E070E0F7CF66E970E032
:10122000F4CFCB016EE370E00E942413892B09F008
:1012300099CF60E070E083ECCF911F910F914ECF7A
:1012400090913101892F807F805F80739F70892BFF
:101250008093310160E070E02EDA2EDBDADAAFCF76
:1012600081E08093AE01CB018F739927892B09F020
:10127000A2CF20913101822F8F708F5F6BE00E948F
:101280001813207F922B9093310195CF81E098CF56
:10129000CF93C0911701C11125C0813C41F460E09A
:1012A00070E084EA9BE0E9DD8C2FCF910895823CC9
:1012B00029F460E070E087E79BE0F5CF833C51F4D0
:1012C0008091200190E001968770992780932001FA
:1012D000F3DAEACF873B31F460E070E080E598E034
:1012E000BADDE2CFC1E0E0CF9F92AF92BF92CF9242
:1012F000DF92EF92FF920F931F93CF93DF93C82F4C
:101300008B0180911C018093BB01A0900901F0909A
:10131000080180910C01B090B101811102C0BB2481
:10132000B39480911701E0900D018111E0901801B4
:10133000E114C9F141E0E41621F080910A018F1512
:1013400090F1D6E99090AD01B8018C2FA6DC809188
:10135000AD01811551F1911004C09091BA019093A3
:10136000B001C83029F0CA3041F500910A0110E0FF
:10137000A016110628F40F15110510F400930A01A8
:10138000C80115D93EDC81E08093050180E0DF9142
:10139000CF911F910F91FF90EF90DF90CF90BF9072
:1013A000AF909F900895DF2DCDCF9114D1F260E0E2
:1013B00070E084EA9BE061DDE9CFC13CC1F3C23C4F
:1013C00049F48091BA018D1708F041C08D2F19DCC6
:1013D00063D9DCCFC43C39F480E000D860E070E031
:1013E00083EA98E0E8CF9FE49C0F923008F05BC05E
:1013F00080910C01811571F1C80168E170E00E94D3
:101400002413892B09F0C2CF8091A5018111BECF91
:101410002091BA010115110541F5C23B01F58FEF8D
:1014200080930501C091BA01809105016B2D70E098
:10143000082E000C990B0E9407138C0F911DB7D832
:1014400080930A01C81719F08F1101C0F0D980915B
:101450000A01BDCF6091140170E0C801D0CF2F15F3
:10146000F0F6A216F8F281E0DBCFE0911401F0E093
:10147000CF0166E371E00E9407138017910710F413
:101480002F1568F6CF016CE672E00E9407138017F3
:10149000910740F6A21630F2BCD960E070E083EA12
:1014A00098E0EBDCBFCF9FE19C0F923020F480915D
:1014B0000501819569CFC13009F087C00932110556
:1014C00011F4C0930501811581F1E091B001F0E0C4
:1014D00090E0BF010E9407136C012091AC0130E045
:1014E000B9010E943813462FC6018E1B9F0BB9010C
:1014F0000E943813242F261B8091AA019091AB01E2
:101500006EE370E00E942413822F90E00E94071384
:101510006CE370E00E942413842F861B461301C0E5
:1015200081E08093B8018093B201C091B80120910D
:10153000BA014C2F421B550BCA0160918D0170916D
:101540008E016F5F7F4F70938E0160938D010097C6
:1015500009F41CCF3CF440E051E0233828F040E48B
:1015600050E002C040E052E05695479597FD019645
:10157000959587950097C1F74617570708F006CF4E
:10158000C217F8F4CFEFC20FE091BB01F0E0EE0F0D
:10159000FF1FEE0FFF1FE05AFE4F0280F381E02D88
:1015A0008FEF8C0F0995811539F0D091B8018C2FF0
:1015B0000E94EE01D093B80110928E0110928D011D
:1015C000E5CE2C1708F7C1E0DECFC53081F480915D
:1015D000BA01833308F4DACE90E0801B910B87398F
:1015E0009105ACF086E990E08093B801CFCEC6308B
:1015F000A1F48091BA012091B201821708F0C6CE01
:10160000080F111D822F2017110674F3C8018233B1
:10161000910554F782E390E0E7CFC73069F49091E9
:10162000B8018091BA01891710F48F5FDDCF981748
:1016300008F0ACCE8150D8CFC33C99F0C63C49F5F8
:1016400081E090910C01911180E080930C0134D9DC
:10165000EED88091BA0190E00E94D70280930A01EF
:10166000B6CE60911D0170911E0180E090E020E0F7
:10167000AB01082E02C0569547950A94E2F74170D7
:10168000240F01968830910599F72230C8F281E045
:101690007ECE809117018111FACFC33B41F4012B1B
:1016A00009F074CEE110D6E98D2FABDA6FCEC33ED0
:1016B00019F480910A01F9CF60E070E088E698E0C3
:1016C000C73B99F0CA3C59F48091BA0180931A0142
:1016D0008091BB0180931F01EFD89BD857CECA3BA6
:1016E000B1F660E070E08CE598E0B5DB4FCE813C70
:1016F00039F460E070E084EA9BE0BFDB80E00895AD
:10170000823C29F460E070E08CE997E0F6CF873BFB
:1017100031F460E070E08AE498E09DDBEFCF81E097
:10172000089590912101911569F08093A60188E0B8
:101730008093A40181E08093A5018091BA018093F8
:10174000A70108950C94EE01CF93DF93EB0188304D
:10175000A1F480E0E6DF8091A501C82B1092B301CF
:1017600080911C018093BB011092AD0181E0CD2BD3
:1017700069F080E0DF91CF910895813051F46931B3
:101780007105B8F39091A5019111F3CF8093BC013D
:10179000F0CF833059F58091B3018F3F19F08F5FFF
:1017A0008093B30180911A01811559F080911B013A
:1017B00090E062EC71E02BD7C817D90710F00E94B7
:1017C0004203BE01809130010E945B03809133018E
:1017D000811579F290E062EC71E019D78C179D07C2
:1017E00040F660E070E083EA98E016C0813BB1F417
:1017F00081E090E00E94D70294DF8091190181116D
:10180000B8CF80910C01811103C0689708F4B1CF63
:1018100061E070E084E799E030DBABCF813EC1F35B
:10182000813839F480910A0190E00E94D70279DF73
:10183000A0CF60910A0170E0813C61F3823B91F49A
:101840001092B30180911701811107C080910D01A1
:10185000811106C086E990E0E8CF80911801F8CFA9
:1018600086E9E5CF823E11F480E0E1CF66E970E0E1
:10187000823C81F2833919F41092A501F5CF853CA1
:1018800051F480911701813009F474CF60E070E069
:1018900088E499E0C1CF843C41F480911701813004
:1018A00009F468CF0E9409049CCF8D3B41F4F89461
:1018B00088ED8FBD88E880BF7894A895FFCF8F3CD6
:1018C00051F480911701813009F454CF60E070E049
:1018D00081E294E0A1CF8A3BA1F4209709F052C0A5
:1018E00080911701811539F00E94090410921701A7
:1018F0000E945C043ECF60E070E082E698E0ABDAE4
:1019000038CF833B51F480911701813009F432CFF5
:1019100060E070E085E29EE07FCF873C99F4909193
:101920003001892F807F805F80739F70892B809327
:10193000300160E070E00E945B030E945C040E9442
:10194000090417CF873BC9F481E08093AE01CE0133
:101950008F739927892B59F420913001822F8F7032
:101960008F5F6BE065D6207F922B90933001BE0194
:10197000809130010E945B03FCCE873E19F41092E7
:10198000AE01B6CF90911701911111C08A3C31F48C
:101990000E94090481E080931701AACF893B39F4A2
:1019A000CD2B29F460E070E086E598E0A8CF81E0D7
:1019B000E1CE0F931F93CF931092BF018091170236
:1019C000909118029C012F5F3F4F88279078822BBF
:1019D000932B90931802809317022091BD019FB121
:1019E0009038880B81958093BD012817C1F0109223
:1019F000BC018093BD018091190297FD31C0982FE1
:101A000090698F708F3009F09F5F9093190280E08A
:101A100090E00E941A011092180210921702009191
:101A20001702109118028091BC01811539F1B8019B
:101A300083E00E94FF007BD90134110520F00F7074
:101A40001127012B99F510928F0181E08093E60117
:101A50000E943C018FEE83B981E08093DA0120C0BF
:101A6000982F9F7E85FD08C0906890931902809101
:101A7000170290911802CDCF906CF7CFC091190248
:101A80008C2F807F803BB1F460E070E081E00E94A9
:101A9000FF00C8010E941A0180918F018115D1F2C7
:101AA00080918F018F5F8F7180938F01CF911F91F4
:101AB0000F910895B80181E00E94FF00C4FF0FC09C
:101AC000C5FDE7CF0831110538F3109218021092C6
:101AD0001702C062C093190280E090E0DBCFC1150D
:101AE000D9F2C5FF03C00E941E01D6CF02311105F5
:101AF00098F2C064C093190280E090E00E941A013D
:101B0000F2CF8091E50181110E9480048091BF0194
:101B100081114FCF0895EF92FF920F931F93CF93B0
:101B2000DF93EC0108E017E082ECE82EFF24F39449
:101B3000209739F4DF91CF911F910F91FF90EF9093
:101B400008958091B4018111F5CF8091BA0182305E
:101B500068F482E00E94F900C7010197F1F780E084
:101B60000E94F900CEDFE3D82197E2CF80E00E9407
:101B7000F900C801F2CF0F931F93CF93DF93C82FC3
:101B800006EA811102C00CE0C1E0D091BB0110E077
:101B90008091200100D882E30E94EE01D093BB0126
:101BA000C801B9DF809120010E94CB0580E00E942E
:101BB000EE01D093BB018AEF90E0ADDFCA9541F70B
:101BC0008D2F0E94CB058AE992E0DF91CF911F9182
:101BD0000F91A1CFCF93DF9300D0CDB7DEB7282FE1
:101BE00064E626D5382F9A83892F6AE021D5998318
:101BF000243648F48A818A3040F489810F900F900E
:101C0000DF91CF91B8CF832FB6DF8A816AE010D5FC
:101C1000B2DFF3CFCF93DF93D82FC3E080910A01D7
:101C20000E94EE0188EC90E076DFD11519F080E992
:101C300091E071DF80E00E94EE0188EC90E06BDFC4
:101C4000CA9561F7DF91CF910895FF920F931F938B
:101C5000CF93DF93D82F8B01C091A901C43071F4C9
:101C6000F090AD011AD8F114A1F08091AD0181116D
:101C700010C060E070E084EA9BE0FFD8D83071F0DB
:101C8000D13C09F061C160E070E084EA9BE0F5D8E6
:101C90000CC0D83089F481E0809303018091220147
:101CA0008093A90181E08093040180E0DF91CF91CE
:101CB0001F910F91FF900895D23C69F41092AD01ED
:101CC0008C2F90E0019666E070E0D2D480932201E0
:101CD0008093A9014CC1D13BC9F490910201012B21
:101CE00041F48FEF963618F4923018F481E0809327
:101CF000030180910301890F811104C081E0809369
:101D00000201D3CF8736D8F386E6F9CFD13E59F416
:101D10008091030181958093030180910401819555
:101D20008093040124C1D23BE1F481E0809303015C
:101D300080910201823018F081508093020181E08D
:101D400080930401C23008F0F6C000FDAECFEC2F46
:101D5000F0E0E45FFE4F858D8F3F09F4A6CF8F5FE3
:101D6000C3C0D13009F006C10932110511F4D09376
:101D70000301409187019091860130918501892F5F
:101D8000880F880B990F89276091010170E090E01E
:101D90003ED4292F842F880F440F440B842790E0D2
:101DA00069E070E034D4290F832F880F880B330F3C
:101DB00083276091000170E090E029D4622F690FC1
:101DC00080910201680F7727771F8091AD018130E4
:101DD00091F48091AA019091AB0125E096958795A9
:101DE0002A95E1F724E730E0A901481B590BCA0105
:101DF0000ED4B90129D4862F0E94EE0100FD09C03E
:101E00000E944C01982F917080918701890F8093D7
:101E100087018091860190918401890F80938601CA
:101E20000E944C0165E204D480918501890F809362
:101E300085010E944C018F73811106C00E944C01E4
:101E40006DE0F6D390938401C0910101C11541F07A
:101E50000E944C018F73811103C0C150C0930101D6
:101E60000E944C01811108C00E944C016EE0E0D339
:101E70009093010110928601C0910001C33040F09F
:101E80000E944C018F71811103C0C150C0930001A9
:101E90000E944C018F77811105C00E944C01877010
:101EA000809300010932110511F4D093040180914F
:101EB000B701800F8093B701F8CED43C21F48C2F6A
:101EC00090E0059600CFD13B49F5C23098F400FD73
:101ED000ECCEEC2FF0E0E45FFE4F858D9091040195
:101EE000891B8F3F18F08EEF858FDFCE8830E0F7AB
:101EF00088E0FACFC53009F0D8CE80912B019091BF
:101F00000401890F893730F088E780932B010E9404
:101F1000EE01CBCE8230C8F782E0F7CFD13E09F494
:101F2000FCCED23B09F40BCFD23E09F181E0D13097
:101F300009F0BCCEB7CFC53009F0B7CE80912B01E8
:101F4000833028F38150E1CFD23C09F4B9CED33CA1
:101F500009F0B3CF8091BB018F5F87700E94CB05E2
:101F6000EC2FF0E0E45FFE4F8091BB01878B0E9475
:101F70005C049BCED13C59F786CE1F921FB61F92B0
:101F800011242F933F938F939F93AF93BF93EF931E
:101F9000FF938091E4018115E9F0E091E30120B124
:101FA00031B1F0E0EE0FFF1FDF01A152BE4F2D93C4
:101FB0003C93E552FE4F808191818217930708F48C
:101FC00001962817390708F401979183808381E0EF
:101FD0008093E50181E08093E401FF91EF91BF914F
:101FE000AF919F918F913F912F911F901FBE1F9096
:101FF00018958F9381E08093BF018F9118958F93EF
:1020000081E08093BE018F9118952F932FB72F9366
:102010003F938F939F9380911B0290E090936D006C
:1020200080936C0020911C0230911D02922F9F77AB
:1020300080911A02890F220F232F221F330B319513
:1020400087FB992790F9920F90931B028F778093CB
:102050001A029F918F913F912F912FBF2F91189529
:10206000F89485B7877F85BF88ED0FB6F894A8955B
:102070008FBD80B7877F80BF0FBE81E088B989E0C0
:102080008CB98CE380BB82EA8093720081E18093FB
:1020900071008FEF90E0909369008093680080E872
:1020A00082BB87BD8CB788608CBFA89580E480BF59
:1020B0000E943C01789481E00E94280160E070E079
:1020C00086E797E00E942B071092B4010E94090452
:1020D0008FB18038990B91959093BD0187FFA4C073
:1020E0008CE091E09093B6018093B50182E00E946C
:1020F0002801F89480E090E0D4D2853A79F40091F8
:10210000B5011091B601C1E0D0E0CE01CAD2F8010C
:1021100081938F012196CA32D105B9F778948091C5
:102120001A0181110E94420360E070E08EE698E09F
:102130000E942B0761E070E084EA9BE00E942B077D
:1021400040E4242E3324339454EA852E5BE0952E0C
:10215000CC24C394D12C412C512C71E8672E70E013
:10216000772E0E9497068091C2019091C30100973B
:1021700051F06091C0017091C1010E943D07109221
:10218000C3011092C2018091BC01811541F180E030
:102190000E94EE01A895F3E4F0BF1F988FB180383C
:1021A000990B91959093BD0187FFF8CF0E941E0176
:1021B0008CB788608CBF1092E5011092BF0110921D
:1021C000BE018091BC01811162C022E020930B010D
:1021D0008CB7877F8CBF0E943C01A89520BE91DC04
:1021E0001092B4018091D5019091D601E4E0813242
:1021F0009E0709F083C0C0E7D0E0FE0184918053C0
:10220000803108F06BC0B7DC8CE291E084DC219671
:102210006C167D0691F79092C3018092C2011092D4
:10222000C1011092C0019DCFC0E08C2F0E94EE0131
:1022300083E190E070DC8C2F86950E94EE0183E1B3
:1022400090E069DC8FB18038990B91959093BD0136
:1022500087FD1AC0CF5FC03441F765E181E00E947D
:1022600023040E945C04C6E98C2F0E94EE0184E0E6
:1022700090E051DCCA95C1F733CF8C2F0E94EE015C
:102280008DE090E048DCC150C111F7CF29CF80919B
:10229000E6018115F9F086B78F79806286BF86B72F
:1022A000806186BF889586B78F7E86BF8091BE018C
:1022B00081111092BC018091E501811521F03092CD
:1022C000DA010E9480048091BF01811509F479CF61
:1022D00070DB77CF86B78F798064E0CF10E010FB9A
:1022E000882785F90E94EE0180E190E014DC1F5FF1
:1022F0001931A9F78AE992E00EDC86CFFEE085323B
:102300009F0709F0D1C0C091A901EC2FF0E0E45F74
:10231000FE4F87898093BB01C33009F456C0A8F4EF
:10232000C23099F1D58D86E90E94EE0183E090E0FC
:10233000C11519F08D2F869590E0EDDB80E00E94AD
:10234000EE018D2F90E0E7DB0CCFC53009F009CF0F
:10235000C0912B01CC0FC73908F0C6E9D4E08C2F0F
:102360000E94EE0185E090E0D6DB80912B010E9477
:10237000EE0181E490E0CFDBDA9589F780ED92E021
:10238000CADB80E00E94EE01ECCED0910A0181E030
:102390000E94CB05C0E08D2F0E94EE0181E290E00B
:1023A000BADB80E00E94EE0182E490E0B4DBCF5F14
:1023B000CA3031F0C53079F785E00E94CB05EBCF0C
:1023C00080911C018093BB01CCCE0E944C018F7385
:1023D000082F10E00E944C0167E02AD1760102C06C
:1023E000EE0CFF1C9A95E2F70E944C0165E020D1AB
:1023F000E60102C0CC0FDD1F9A95E2F7CE0DDF1D7E
:102400000E944C0190E0BE0133D1C80FD91FC739DB
:10241000D10524F026E9C22F80E0D82F8C2F0E940E
:10242000EE01C80178DB7E0133E0F594E7943A953C
:10243000E1F7E11002C0EE24E394F12CC8016BDB5C
:102440005E01AE18BF08E501B7FE02C0C42DD52D50
:102450008C2F0E94EE010E944C018370811107C0F5
:10246000C80159DBCE01959587950E94EE0122E0C7
:10247000A216B1041CF70E944C016DE0D9D0E60110
:1024800002C0CC0FDD1F9A95E2F70E944C019E011D
:102490002150310990E028233923C20FD31F80E057
:1024A0000E94EE01CE014FCFE7E08E3A9E0719F56C
:1024B0008091A801811155CEC8E086E90E94EE0105
:1024C00084E190E028DB80E00E94EE0189E290E068
:1024D00022DBCA9591F7C8E086E90E94EE0189E205
:1024E00090E019DB80E00E94EE0182E590E013DBD2
:1024F000CA9591F736CEF9E088349F07B1F488EE9B
:1025000093E009DB8091D90165E092D063DB809193
:10251000D90165E08DD0892F880F5CDB8091170190
:10252000811179CE88EE93E00ECF2BE087379207AA
:1025300021F48091D7014EDBF5CFE7E08D349E0783
:10254000B9F48091BD0181110CCE80910A010E94E5
:10255000EE0184E690E0DFDA80E00E94EE018091F7
:102560002C0190E068EE73E052D084569109EBCED6
:102570008C59974049F480E04DDB81E04BDB80E0F3
:1025800049DB80ED97E0DFCE809121018115A1F13B
:102590008091A501811581F13091BA012091A601A8
:1025A00032130AC0822F0E94EE011092A501809181
:1025B000A7018093B901D5CD6091A401321768F4C9
:1025C000822F831B861738F033D0830F0E94EE01D1
:1025D0008AE090E0B8CE81E0F8CF862F90E06EE1FF
:1025E00070E015D06091A701621B70E041D0EB0153
:1025F00021968FEF830F54CF86B78F7986BF86B72A
:10260000806186BF889586B78F7E86BFAACD00245D
:10261000552704C0080E591F880F991F009729F0ED
:1026200076956795B8F37105B9F7802D952F0895C4
:10263000992778E0880F991F961708F0961B881F36
:102640007A95C9F780950895AA1BBB1B51E107C075
:10265000AA1FBB1FA617B70710F0A61BB70B881F32
:10266000991F5A95A9F780959095BC01CD010895C1
:1026700097FB072E16F4009406D077FD08D0E4DF10
:1026800007FC05D03EF4909581959F4F0895709575
:1026900061957F4F0895EE0FFF1F0590F491E02D97
:1026A0000994E199FECF1FBA8EBBE09A99278DB3AA
:1026B0000895262FE199FECF1FBA8EBBE09A815074
:1026C0000DB2021639F01CBA2DBB0FB6F894E29A7F
:1026D000E19A0FBE0895F894FFCF11090809B208D6
:1026E000B2083009B208B208B208B208B208B2089B
:1026F000B208B208B208B208B208FB0802090E0913
:04270000B2082009F2
:10270400080E1801010100048208460200010808AD
:102714000882822802070301000100000001000072
:1027240001010400000000000029433202073200C6
:1027340013190100010E011101140102010000002E
:102744000000000001000000000000000001000083
:102754009101A502AF03B904C305CD06DC07FF0749
:1027640041026E02C201EC01C801EC01CE01EC0190
:10277400D401EC01DA01EC01E001EC01E601EC0129
:042784000504030045
:00000001FF
