:10000000DAC00000F5C000000C942810F1C0000018
:10001000EFC000000C942210EBC00000E9C000000B
:10002000E7C000000C942E10E3C00000E1C0000007
:10003000DFC00000DDC000000C94E60FD9C0000056
:10004000D7C00000D5C00000D3C00000D1C0000060
:10005000CFC00000CDC00000CBC00000C9C0000070
:10006000C7C00000C5C00000C3C00000C1C0000080
:10007000303237332E32352D30372D323032342D69
:1000800032000001050414101115000001000200E7
:100090000300040005000600070009000A000C0028
:1000A0000E0011001300160019001C00200024008F
:1000B00029002D00320038003E0045004C0054005D
:1000C0005C0065006E00790084008F009C00A90030
:1000D000B800C700D700E800FB000E01230139017A
:1000E0005001680182019E01BA01D901F9011B0288
:1000F0003E0264028B02B502E0020E033D03700370
:10010000A403DB03150451049004D10416055E0515
:10011000A905F70548069D06F5065107B10714081D
:100120007C08E7085709CB09440AC10A430BCA0BEC
:10013000560CE70C7E0D190EBB0E620F0F10C1108E
:100140007B113A120013CC13A0147A155C164517D4
:1001500035182D192D1A351B451C5E1D801EAA1F32
:10016000DD201A226023B02409266D27DB28532ABC
:10017000D72B652DFF2EA43054321134DA35AF372A
:100180009139803B7D3D863F9E41C343F7453948C9
:100190008A4AEB4C5A4FDA5169540957B9597A5C7B
:1001A0004D5F316227652F68496B776EB7710B75AC
:1001B0007378EF7B807F11241FBECFEFD4E0DEBFCA
:1001C000CDBF11E0A0E0B1E0E0E8F7E202C00590A9
:1001D0000D92A438B107D9F722E0A4E8B1E001C03C
:1001E0001D92AF31B207E1F70E9459100C9494139D
:1001F00007CFF89498ED9FBD83BF78940895482F5A
:10020000362F272FE8EEF1E090E0808181110DC0BC
:10021000892F90E063E070E00E943013FC01E85108
:10022000FE4F40833183228308959F5F3396903140
:1002300061F70895BC0180911A02E1CF10921A0271
:10024000109219021092180281E08093B50108956E
:100250000F931F93CF93C82F08EA17E0C15020F4E3
:10026000CF911F910F91089582E0C3DFC8010197DC
:10027000F1F780E0BEDFF2CF86E884B9E1E6F0E096
:1002800080818260808388E082B91092E4011092BC
:10029000E5018FEE83B90895E0910601F091070121
:1002A0003196FB70F460F0930701E09306018091B2
:1002B000B8018B5A8093B801E4918091B8018E0FF8
:1002C0000895811521F0813031F0829A05C082981D
:1002D00092988A9808958298929A8A9A08950F938C
:1002E0001F93CF93DF9300D00F92CDB7DEB720914D
:1002F0008001309181014091820129833A834B83AF
:10030000FE01319640E050E0682F70E0A1E0B0E0DF
:100310009B01042E02C0359527950A94E2F7922F8F
:10032000937021918D0102C0000F111F2A95E2F7F1
:100330009801911529F09130D1F080B3802B1BC02A
:1003400080B32095822380BB82B3822382BB81B39A
:10035000822381BB4E5F5F4F46305105C9F60F9037
:100360000F900F90DF91CF911F910F91089590B34F
:10037000802F8095892380BB82B3822B82BB81B37F
:10038000822BE7CF811511F082E0A9CF81E0FDCF6C
:10039000811511F08AE0A3CF85E0FDCF811511F022
:1003A00088E09DCF84E0FDCF811511F088E297CFE2
:1003B00084E1FDCF811511F080E291CF80E1FDCF86
:1003C000811511F082E28BCF81E1FDCF811511F013
:1003D0008AE285CF85E1FDCF81E00895CF93C82FD4
:1003E0008091BB01811109C0C11539F080913401A0
:1003F000C81718F4F3DF82E02BDF8091BD01811173
:100400000BC06DDF91E0C11101C090E081E0C73405
:1004100008F480E0890F55DFC11123C08AB78F77B8
:100420008ABF10921E0210921D0210926D0010924F
:100430006C0010926F0010926E006898489880913E
:10044000BB018C138093BA01C093BB01C093B90167
:1004500082E0C23020F081E0CF3F09F480E0CF910C
:10046000C8CEE091BC01F0E0EE0FFF1FEE0FFF1FC2
:10047000E05AFE4F0190F081E02D8FEF8C0F09952F
:10048000DECFE82FF0E02091BB012150330B821723
:10049000130619F1EE0FFF1FE657FF4F8591959157
:1004A00090931E0280931D02880F892F881F990B3D
:1004B000919580931C02992790936D0080936C0016
:1004C0008AB780688ABF8091BB01811104C01092F5
:1004D0006F0010926E00689A489A0895E82FF0E035
:1004E000EE0FFF1FE657FF4F4591559120911D02DA
:1004F00030911E02932F969580E02417350778F4EB
:100500002F5F3F4F8F5F9817C0F730931E022093E5
:100510001D0281E02417350709F080E00895421795
:10052000530780F721503109EDCFCF93DF9300D0EF
:1005300000D000D0CDB7DEB72091D6013091D701E1
:100540002C57384079F090910C01843069F4609315
:1005500018010F900F900F900F900F900F90DF9158
:10056000CF91089592E0F1CF611599F3823019F49B
:1005700027E9261B622F26E0E5E3F1E0DE01119674
:1005800001900D922A95E1F7FE013196E80FF11DD9
:10059000E80FF11D32970190F081E02DE90FF11D78
:1005A0006083D7CF813011F4609334010895CF92E6
:1005B000DF92EF92FF920F931F93CF93DF93EC01A3
:1005C00060910C0190911701E62F9111E2E0F0E0AB
:1005D000E45FFE4F22812093090185818093080109
:1005E000E92FF0E0E45FFE4F3185422F50E06115C6
:1005F00081F0313071F4480F511D55954795842F86
:10060000DF91CF911F910F91FF90EF90DF90CF90EE
:100610000895C417D507A4F18C171D068CF361113A
:1006200002C08C2FEDCF821B432F4150550B7A0116
:10063000C82ED12CC601BA010E9461136093B20189
:10064000822F00E010E040E06695E62FF0E04317CF
:10065000B9F2C801B7010E944D13822F860F0C0D0D
:100660001D1DA82FB0E0BE01681B710977FF03C0F4
:10067000BD016C1B7D0BE617F70714F64F5FE7CF44
:10068000822FBECFECE0F1E0868580930A0183895A
:10069000808B8093BC0108958091AE01811551F04B
:1006A0009091BB019093B1018093AD011092AC0188
:1006B0001092AB0108950F931F93CF939B0140912C
:1006C000DA019FEF940F903938F480E008DE80E083
:1006D000CF911F910F91F5CDE82FEF709091AF0161
:1006E000911129C0C82FC295CF708091320190E03E
:1006F00053E0880F991F5A95E1F768177907E0F4DE
:100700005091B40158171906BCF45115A9F081E0B5
:100710009091BA019F3008F480E091E0C23009F076
:1007200090E0892BC1E0C80F8091BD01811509F4CB
:1007300063C080E03AC0C2E0E73010F4F0E016C0D9
:10074000E730B9F40091890110E00F5F1F4FA4DD7D
:1007500065E00E9441139801290F311DC90166E02F
:1007600070E00E94611380938901FC01ED57FF4FF7
:1007700028C0E830C9F68091BD01811113C083E023
:1007800090E082239323892B51F48091890190E09A
:10079000019666E070E00E94611380938901E09108
:1007A0008901CCCF8FE0ECCF8E5FE82FF0E0E25BE9
:1007B000FE4F90814917C0F73197E081F0E0EE5786
:1007C000FF4FE491C33071F48091880190E001966D
:1007D00063E170E00E944D1380938801855C9E4F19
:1007E000DC01CC91C11599F0C13011F0EE0FC2E0DF
:1007F0008E2F75DD8C2F6CCFC9019695879563E0A0
:1008000070E00E944D13FC01EE0FFF1FAFCFE0E040
:10081000EFCFCF93C091BB0182E38C0F873908F0F3
:1008200080E0DCDD83E014DD8C2FCF91D7CDCF933A
:10083000C091BB0180E0D2DD83E00ADD8C2FCF9137
:10084000CDCD81E00895611569F0813099F48091F2
:100850002F019091D801891B860F80932F0182E090
:1008600080930B0180912E01873418F086E48093E9
:100870002E010895635E60932E01F4CF60933301DF
:10088000089540911D0150911E01815021E030E0FA
:10089000F90102C0EE0FFF1F8A95E2F7CF01611543
:1008A00039F04E2B592B50931E0140931D01089592
:1008B000809548235923F7CFCF93DF938CE091E0C5
:1008C0009093B7018093B60182E0C2DCF894C0E057
:1008D000D0E0E091B601F091B701EC0FFD1F60810F
:1008E0002196CE010E948213C932D10591F765EAA3
:1008F00080E090E00E9482137894DF91CF91089578
:100900001092E60180B191B12091B801829586954F
:1009100086958370990F990F890F820F8093B80184
:100920008091DB01811509F444C01092DB018091B4
:10093000E4019091BD01911529F01F981092E701F3
:100940001092E40181115BC080910B01811591F13E
:100950008091E0019091E1019093DD018093DC01B1
:1009600060912D016750262F220F6AE171E00E94ED
:100970004D13620F6093DA018091A2018115B9F1E4
:1009800081508093A2018091BD01811109C08EE840
:1009900084B981E08093E4011092E5018FEE83B980
:1009A00080910B01811529F080910B01815080937A
:1009B0000B0108952091BD018091DC019091DD0132
:1009C000211571F22091E0013091E10143E036956B
:1009D00027954A95E1F7280F391F53E0969587959B
:1009E0005A95E1F7A901481B590BCA01B5CF6139E6
:1009F00050F660E070E084E002DC85E0C2CF813038
:100A000079F680910B01811541F08091E20190917E
:100A1000E3019093DF018093DE018091DE019091EC
:100A2000DF01A0912F019C01B6E036952795BA957C
:100A3000E1F70A2E000CBB0B2A0F3B1F2E50314052
:100A40003093D9012093D80125E0969587952A9572
:100A5000E1F720910B0121113CC020919101E22F7F
:100A6000F0E0EE0FFF1FEE56FE4F40815181BC01BA
:100A7000641B750BAB01918380832F5F27702093DC
:100A80009101660F771F660F771F680F791F80919E
:100A90002E0190E08A1B9B0B825F9E4F880F991F4F
:100AA000681B790B83E016161706A4F561507109CF
:100AB0008A95C9F7161617060CF045C057FD62C097
:100AC00080919001181664F5861B80939001D4DB09
:100AD00067CF9093930180939201909395018093B7
:100AE000940190939701809396019093990180933C
:100AF000980190939B0180939A0190939D0180931C
:100B00009C0190939F0180939E019093A1018093FB
:100B1000A001A3CF6115710559F26F5F7F4FC8CF58
:100B2000660F771F653071055CF06350710975952C
:100B3000679588E1861B8093900185E060DBC7CFD5
:100B400061E070E0F6CF6C3F8FEF7807DCF457FF81
:100B500019C08091900187FF02C08450B5CF84EE08
:100B6000861B809390018091DA01833908F4AFCF1E
:100B70008CEF9FEF9C01261B370BB901759567958C
:100B800086E0DCCF8091DA01823908F4A0CF60E002
:100B900070E087E0D3CFCF93DF93C82F8091BC0163
:100BA0008C1751F0D091BB0180E018DCC093BC01E0
:100BB0008D2FDF91CF9112CCDF91CF9108958130AD
:100BC00019F410921A010895823019F460931B01F0
:100BD0000895833019F4609319010895843019F44D
:100BE00060930D010895853011F4609321010895FB
:100BF000823019F4609332010895611160932D01E0
:100C000008958093B3019091BB01282F291B981759
:100C100010F0292F281B3091A501311106C0309109
:100C20002101311569F0223058F08093A60184E04B
:100C30008093A40181E08093A5019093A70108957A
:100C4000CDCBEF92FF921F93CF93DF937C01D62FF2
:100C5000C72F142F8091D6019091D701892B31F0A5
:100C6000E091D601F091D70189E00995F092D70182
:100C7000E092D601EF2841F0E091D601F091D70142
:100C80006D2F7C2F812F099581E08093B501DF9135
:100C9000CF911F91FF90EF900895282FCB0128301E
:100CA00039F41092AE011092AC011092AB0108958C
:100CB000213B59F48091AE0181508330B8F583E037
:100CC0008093AE018093AD01EECF253BA1F46EE39E
:100CD00070E00E944D13892B49F58091AE018A3F47
:100CE00028F58B5F8093AE018093AD011092AC012B
:100CF0001092AB018ECD2130C9F48091AB0190915F
:100D0000AC01019688382EE0920728F49093AC014C
:100D10008093AB0108951092AC011092AB018091C9
:100D2000AE01811519F081508093AE010895EF92C4
:100D3000FF921F93CF93DF931091E801111106C02A
:100D4000DF91CF911F91FF90EF900895E090E9011E
:100D5000F090EA01C091C501C1500C2E000CDD0BD2
:100D6000C7FD0EC0FE01EE0FFF1FEA53FE4F0190BC
:100D7000F081E02DB701812F099521978111F0CFE6
:100D8000E8EEF1E083818083848195819283818381
:100D9000339682E0E531F807A9F710921502109218
:100DA000170210921602C8CFE091C501E11529F093
:100DB000E150E093C501E11106C080E090E04AE017
:100DC00060E070E03ECFE150FF0BEE0FFF1FEA53F3
:100DD000FE4F80819181F3CF883039F41092A301C6
:100DE00010928A0180E0FADA0CC08130F1F490911F
:100DF0008A01911108C06032710518F080938A0150
:100E00001DDA80E00895913071F46B3B710520F09C
:100E100082E080938A01E6CF61FB882783F98E5EAA
:100E2000672B79F3E0CFC0DFECCF813859F481E054
:100E300080938A018091A3018F5F8093A301FED9E3
:100E40008BE4D1CF813EE9F681E080938A018091E5
:100E5000A301865FF2CF2091C501283068F4E22F0C
:100E6000F0E0EE0FFF1FEA53FE4F808391832F5F68
:100E70002093C50148E0E5CE08950F931F93CF93CB
:100E8000DF93D82FC92F8B018FDFB8018D2F9C2FB7
:100E9000DF91CF911F910F91DECF282FCB01213C05
:100EA00039F460E070E086EB9BE0E7DF80E00895D6
:100EB000223C29F460E070E082E699E0F6CF213B25
:100EC00041F46EE370E00E944D13892B79F7A1DCA9
:100ED000EDCF213E49F46EE370E00E944D136F5F49
:100EE00060932C01E9DCE2CF81E00895843011F5B4
:100EF0008091D6019091D7012EE08F33920731F483
:100F000069E170E08EE899E0B8DF0DC08E58994035
:100F100061F49091BB01923040F0892F86959695AF
:100F20009695890F6EDE80E0089560E070E086EBB4
:100F30009BE0EACF81E00895813C39F460E070E005
:100F400086EB9BE09ADF80E00895823C29F460E024
:100F500070E08DE497E0F6CF81E00895883049F0A5
:100F6000813C49F41092A80160E070E086EB9BE0C0
:100F700084DF80E00895823C49F48091A80190E0EC
:100F80000196817099278093A801F3CF81E008959D
:100F9000813C89F48091AA01813041F460910A0179
:100FA00070E08EE899E069DF80E0089560E070E02D
:100FB00086EB9BE0F8CF80E011DA82E090D981E007
:100FC00080D9F2CF1F93CF93DF93162FD72FC42F43
:100FD000F9018830C9F48091BC0180938C01109292
:100FE0008B0180E0FBD98091BE01811158C08091B6
:100FF0008B018F5F80938B0160E070E08CEE96E058
:10100000DF91CF911F9127CF982F907F903B39F59B
:1010100080918B01481708F18150883040F49091FD
:10102000B001911521F09091BC018913B4DD812F9D
:101030009D2F6DE570E00E944D13069761F480913D
:101040008B018F5F80938B01C81748F188E3DF9194
:10105000CF911F91C3C982E1FACF80E0F8CF903ED3
:1010600051F480918B01811571F0481760F08091E7
:101070008C0191DDC1CF8A3051F46091A301809140
:101080008B01099519DCDF91CF911F918DCE8930AD
:1010900031F480918C01DF91CF911F917CCDDF9154
:1010A000CF911F91089591E09093B00121E434E035
:1010B00048E088DF1092B00180E008952EE334E02C
:1010C00041E080DF80E0089523E234E042E07ADF0F
:1010D00080E0089528EF35E042E074DF80E0089575
:1010E00022ED32E041E06EDF80E008952FED35E043
:1010F00045E068DF80E0089525E932E044E062DF02
:1011000080E0089525E932E043E05CDF80E0089567
:10111000833C29F55091BC0160911D0170911E0125
:10112000952F48E0892F90E001969C012770332786
:10113000922FFB01022E02C0F695E7950A94E2F782
:10114000E0FD02C04A9571F75917A9F0822F23DDFF
:101150008091BC0180931C01AFDB80E008959091E9
:101160001701911108C0893B31F460E070E083E51C
:1011700098E071DEF2CF81E008950F931F93CF9333
:10118000C82F8B01883CF0F4833B98F48330B1F195
:101190008830F1F0813021F180911701811190C0E8
:1011A000CA3B09F08DC060E070E08EE598E053DE48
:1011B00020C0EDE4E80FE53178F7F0E0EA56FC4EA8
:1011C0000C947413873E41F71092AF0175DB11C088
:1011D0001092B40160E070E0809131016CDADCCFF4
:1011E0006931710530F08093BD01B8018091310102
:1011F00062DA80E0CF911F910F9108958091B40140
:101200008F3F19F08F5F8093B40180911A0181158F
:1012100061F380911B0190E062EC71E00E94301359
:101220000817190710F32EDAE0CFF3DA60E070E068
:1012300086EB9BE022DEDDCF60910A0170E08EE854
:1012400099E0F8CFF4DA10921A0261E070E0F7CF7B
:1012500066E970E0F4CFCB016EE370E00E944D13BD
:10126000892B09F099CF60E070E083ECCF911F915A
:101270000F914ECF90913101892F807F805F8073D5
:101280009F70892B8093310160E070E014DA14DBE9
:10129000C0DAAFCF81E08093AF01CB018F73992784
:1012A000892B09F0A2CF20913101822F8F708F5F9F
:1012B0006BE00E944113207F922B9093310195CFD8
:1012C00081E098CFCF93C0911701C11125C0813C17
:1012D00041F460E070E086EB9BE0CFDD8C2FCF9196
:1012E0000895823C29F460E070E089E89BE0F5CF46
:1012F000833C51F48091200190E0019687709927FA
:1013000080932001D9DAEACF873B31F460E070E0C6
:101310008AE698E0A0DDE2CFC1E0E0CF9F92AF92F5
:10132000BF92CF92DF92EF92FF920F931F93CF93D2
:10133000DF93C82F8B0180911C018093BC01A0908A
:101340000901F090080180910C01B090B201811167
:1013500002C0BB24B39480911701E0900D0181116C
:10136000E0901801E114D9F141E0E41621F08091F8
:101370000A018F15A0F1D6E99090AE01B8018C2F2B
:101380008CDC8091AE01811561F1911004C09091C7
:10139000BB019093B101C83061F1CA3069F5109278
:1013A000AA0100910A0110E0A016110628F40F15F9
:1013B000110510F400930A01C801F9D822DC81E07C
:1013C0008093050180E0DF91CF911F910F91FF90F5
:1013D000EF90DF90CF90BF90AF909F900895DF2D5A
:1013E000CBCF9114C1F260E070E086EB9BE045DD6D
:1013F000E9CF1092AA01D8CFC13CA9F3C23C49F46D
:101400008091BB018D1708F042C08D2FFADB44D9C3
:10141000D9CFC43C41F480E00E94EE0160E070E06E
:101420008DEB98E0E4CF9FE49C0F923008F05BC016
:1014300080910C01811571F1C80168E170E00E9492
:101440004D13892B09F0BECF8091A5018111BACF30
:101450002091BB010115110541F5C23B01F58FEF4C
:1014600080930501C091BB01809105016B2D70E057
:10147000082E000C990B0E9430138C0F911D97D8E9
:1014800080930A01C81719F08F1101C0D0D980913B
:101490000A01BCCF6091140170E0C801D0CF2F15B4
:1014A000F0F6A216F8F281E0DBCFE0911401F0E053
:1014B000CF0166E371E00E9430138017910710F4AA
:1014C0002F1568F6CF016CE672E00E94301380178A
:1014D000910740F6A21630F29CD960E070E08DEBE7
:1014E00098E0CBDCBFCF9FE19C0F923020F480913D
:1014F0000501819565CFC13009F087C0093211051A
:1015000011F4C0930501811581F1E091B101F0E082
:1015100090E0BF010E9430136C012091AD0130E0DA
:10152000B9010E946113462FC6018E1B9F0BB901A2
:101530000E946113242F261B8091AB019091AC0176
:101540006EE370E00E944D13822F90E00E943013F2
:101550006CE370E00E944D13842F861B461301C07C
:1015600081E08093B9018093B301C091B9012091CA
:10157000BB014C2F421B550BCA0160918D0170912C
:101580008E016F5F7F4F70938E0160938D01009786
:1015900009F418CF3CF440E051E0233828F040E44F
:1015A00050E002C040E052E05695479597FD019605
:1015B000959587950097C1F74617570708F002CF12
:1015C000C217F8F4CFEFC20FE091BC01F0E0EE0FCC
:1015D000FF1FEE0FFF1FE05AFE4F0280F381E02D48
:1015E0008FEF8C0F0995811539F0D091B9018C2FAF
:1015F0000E94EE01D093B90110928E0110928D01DC
:10160000E1CE2C1708F7C1E0DECFC53081F4809120
:10161000BB01833308F4D6CE90E0801B910B873951
:101620009105ACF086E990E08093B901CBCEC6304D
:10163000A1F48091BB012091B301821708F0C2CEC2
:10164000080F111D822F2017110674F3C801823371
:10165000910554F782E390E0E7CFC73069F49091A9
:10166000B9018091BB01891710F48F5FDDCF981706
:1016700008F0A8CE8150D8CFC63C89F481E0909183
:101680000C01911180E080930C0116D9D0D8809183
:10169000BB0190E00E94D70280930A01B7CE8091EF
:1016A0001701811134C0C33B41F4012B09F08ACEEC
:1016B000E110D6E98D2FA5DA85CEC33E19F48091CD
:1016C0000A01F9CFC33C41F481E08093AA0161E0B3
:1016D00070E088EC97E08BCE60E070E082E898E004
:1016E000C73B99F0CA3C59F48091BB0180931A0121
:1016F0008091BC0180931F01DFD88BD863CECA3B99
:1017000031F460E070E086E798E0A5DB5BCE81E035
:101710005ACE813C39F460E070E086EB9BE0ADDBB3
:1017200080E00895823C29F460E070E08CE997E065
:10173000F6CF873B31F460E070E084E698E08BDB25
:10174000EFCF81E0089590912101911569F0809388
:10175000A60188E08093A40181E08093A501809197
:10176000BB018093A70108950C94EE01CF93DF9302
:10177000EB018830A1F480E0E6DF8091A501C82B61
:101780001092B40180911C018093BC011092AE01B3
:1017900081E0CD2B69F080E0DF91CF910895813019
:1017A00051F469317105B8F39091A5019111F3CF0E
:1017B0008093BD01F0CF833059F58091B4018F3F04
:1017C00019F08F5F8093B40180911A01811559F04F
:1017D00080911B0190E062EC71E042D7C817D907F5
:1017E00010F00E944203BE01809130010E945B0311
:1017F00080913301811579F290E062EC71E030D78D
:101800008C179D0740F660E070E08DEB98E016C005
:10181000813BB1F481E090E00E94D70294DF809197
:1018200019018111B8CF80910C01811103C0689713
:1018300008F4B1CF61E070E08EE899E01EDBABCF39
:10184000813EC1F3813839F480910A0190E00E9411
:10185000D70279DFA0CF60910A0170E0813C61F38B
:10186000823B91F41092B40180911701811107C05D
:1018700080910D01811106C086E990E0E8CF80914A
:101880001801F8CF86E9E5CF823E11F480E0E1CF80
:1018900066E970E0823C81F2833919F41092A50167
:1018A000F5CF853C51F480911701813009F474CF54
:1018B00060E070E082E699E0C1CF843C41F4809121
:1018C0001701813009F468CF0E9409049CCF8D3B39
:1018D00041F4F89488ED8FBD88E880BF7894A8958E
:1018E000FFCF8F3C51F480911701813009F454CF20
:1018F00060E070E081E294E0A1CF8A3BA1F4209700
:1019000009F052C080911701811539F00E94090435
:10191000109217010E945C043ECF60E070E08CE7FB
:1019200098E099DA38CF833B51F4809117018130E8
:1019300009F432CF60E070E08FE39EE07FCF873C18
:1019400099F490913001892F807F805F80739F7020
:10195000892B8093300160E070E00E945B030E945D
:101960005C040E94090417CF873BC9F481E080938F
:10197000AF01CE018F739927892B59F42091300143
:10198000822F8F708F5F6BE07CD6207F922B90939D
:101990003001BE01809130010E945B03FCCE873E86
:1019A00019F41092AF01B6CF90911701911118C0A0
:1019B0008A3C31F40E94090481E080931701AACF88
:1019C000833C29F460E070E088EC97E037CF893BF6
:1019D00039F4CD2B29F460E070E080E798E0A1CFE6
:1019E00081E0DACE0F931F93CF931092C0018091C4
:1019F0001802909119029C012F5F3F4F8827907821
:101A0000822B932B90931902809318022091BE0190
:101A10009FB19038880B81958093BE012817C1F043
:101A20001092BD018093BE0180911A0297FD31C0D2
:101A3000982F90698F708F3009F09F5F90931A02F2
:101A400080E090E00E941A01109219021092180290
:101A500000911802109119028091BD01811539F190
:101A6000B80183E00E94FF0062D90134110520F023
:101A70000F701127012B99F510928F0181E080934F
:101A8000E7010E943C018FEE83B981E08093DB0186
:101A900020C0982F9F7E85FD08C0906890931A0201
:101AA0008091180290911902CDCF906CF7CFC09120
:101AB0001A028C2F807F803BB1F460E070E081E0FF
:101AC0000E94FF00C8010E941A0180918F018115B8
:101AD000D1F280918F018F5F8F7180938F01CF91B1
:101AE0001F910F910895B80181E00E94FF00C4FF8B
:101AF0000FC0C5FDE7CF0831110538F31092190268
:101B000010921802C062C0931A0280E090E0DBCF0E
:101B1000C115D9F2C5FF03C00E941E01D6CF023104
:101B2000110598F2C064C0931A0280E090E00E9410
:101B30001A01F2CF8091E60181110E948004809108
:101B4000C00181114FCF0895EF92FF920F931F9321
:101B5000CF93DF93EC0108E017E082ECE82EFF243E
:101B6000F394209739F4DF91CF911F910F91FF905B
:101B7000EF9008958091B5018111F5CF8091BB015F
:101B8000823068F482E00E94F900C7010197F1F702
:101B900080E00E94F900CEDFCAD82197E2CF80E032
:101BA0000E94F900C801F2CF0F931F93CF93DF93E8
:101BB000C82F06EA811102C00CE0C1E0D091BC013F
:101BC00010E0809120010E94CB0582E30E94EE018B
:101BD000D093BC01C801B8DF809120010E94CB05E1
:101BE00080E00E94EE01D093BC018AEF90E0ACDF70
:101BF000CA9539F78D2F0E94CB058AE992E0DF91D3
:101C0000CF911F910F91A0CFCF93DF9300D0CDB78D
:101C1000DEB7282F64E635D5382F9A83892F6AE0FE
:101C200030D59983243648F48A818A3040F48981FA
:101C30000F900F90DF91CF91B7CF832FB5DF8A81BF
:101C40006AE01FD5B1DFF3CFCF93DF93D82FC3E086
:101C500080910A010E94EE0188EC90E075DFD115B9
:101C600019F080E991E070DF80E00E94EE0188ECDD
:101C700090E06ADFCA9561F7DF91CF910895FF92F6
:101C80000F931F93CF93DF93D82F8B01C091A9019E
:101C900081E08093AA01C43081F4F090AE018D2FD1
:101CA0000E944D06F114B1F08091AE01811112C075
:101CB00060E070E086EB9BE0E0D8D63C08F019C10C
:101CC000D13B08F00DC1D13009F4FEC0D83039F055
:101CD00081E00DC0D83089F481E0809303018091C8
:101CE00022018093A90181E08093040180E0DF91CB
:101CF000CF911F910F91FF900895D23C69F41092FB
:101D0000AE018C2F90E0019666E070E0DAD480930B
:101D100022018093A901F3C0D13BC9F49091020143
:101D2000012B41F48FEF963618F4923018F481E0CD
:101D30008093030180910301890F811104C081E028
:101D400080930201D3CF8736D8F386E6F9CFD13E10
:101D500059F48091030181958093030180910401DE
:101D6000819580930401CBC0D23B69F491E09093BC
:101D7000030180910201823018F0815080930201AA
:101D800090930401B3CFD13009F097CF09321105F8
:101D900011F4D09303014091870190918601309115
:101DA0008501892F880F990F990B8927609101016F
:101DB00070E090E055D4292F842F880F880B440FB2
:101DC000842790E069E070E04BD4290F832F880FBF
:101DD000330F330B83276091000170E090E040D413
:101DE000622F690F80910201680F7727771F80911A
:101DF000AE01813091F48091AB019091AC0125E06E
:101E0000969587952A95E1F724E730E0A901481BCC
:101E1000590BCA0125D4B90140D4862F0E94EE0186
:101E200000FD09C00E944C01982F9170809187019C
:101E3000890F809387018091860190918401890F99
:101E4000809386010E944C0165E21BD4809185013C
:101E5000890F809385010E944C018F73811106C008
:101E60000E944C016DE00DD490938401C09101015A
:101E7000C11541F00E944C018F73811103C0C15004
:101E8000C09301010E944C01811108C00E944C01C5
:101E90006EE0F7D39093010110928601C09100018A
:101EA000C33040F00E944C018F71811103C0C150BA
:101EB000C09300010E944C018F77811105C00E94E0
:101EC0004C018770809300010932110519F481E0FB
:101ED000809304018091B801800F8093B80106CFF0
:101EE000D15BD53108F0F4CEED2FF0E0E555FC4E96
:101EF000FBC3D13E09F432CFD23E09F0E9CE0E94B5
:101F00005C04F4CE60E070E086EB9BE00E943D074D
:101F1000EDCE8091BC018F5F87700E94CB05EC2FC6
:101F2000F0E0E45FFE4F8091BC01878BE8CF8C2FFF
:101F300090E00596E9CEC23098F400FDD7CEEC2FA4
:101F4000F0E0E45FFE4F858D90910401891B8F3F87
:101F500018F08EEF858FCACE8830E0F788E0FACF90
:101F6000C53009F0C3CE80912B0190910401890FF7
:101F7000893730F088E780932B010E94EE01B6CEBE
:101F80008230C8F782E0F7CF81E080930401C2304D
:101F900060F400FDABCEEC2FF0E0E45FFE4F858DEA
:101FA0008F3F09F4A3CE8F5FD5CFC53009F09ECE09
:101FB00080912B01833008F38150DDCF60E070E029
:101FC00088EC97E00E943D0780E0D7CF1F921FB6B4
:101FD0001F9211242F933F938F939F93AF93BF939F
:101FE000EF93FF938091E5018115E9F0E091E40121
:101FF00020B131B1F0E0EE0FFF1FDF01A052BE4F64
:102000002D933C93E452FE4F808191818217930778
:1020100008F401962817390708F401979183808303
:1020200081E08093E60181E08093E501FF91EF91EB
:10203000BF91AF919F918F913F912F911F901FBEA4
:102040001F9018958F9381E08093C0018F91189510
:102050008F9381E08093BF018F9118952F932FB7B5
:102060002F933F938F939F9380911C0290E09093C6
:102070006D0080936C0020911D0230911E02922F02
:102080009F7780911B02890F220F232F221F330B72
:10209000319587FB992790F9920F90931C028F77C7
:1020A00080931B029F918F913F912F912FBF2F9172
:1020B0001895F89485B7877F85BF88ED0FB6F8949B
:1020C000A8958FBD80B7877F80BF0FBE81E088B99C
:1020D00089E08CB98CE380BB82EA8093720081E155
:1020E000809371008FEF90E0909369008093680077
:1020F00080E882BB87BD8CB788608CBFA89580E4E0
:1021000080BF0E943C01789481E00E94280160E039
:1021100070E086E797E00E942B071092B5010E94BD
:1021200009048FB18038990B91959093BE0187FF78
:10213000A4C08CE091E09093B7018093B60182E057
:102140000E942801F89480E090E0D4D2853A79F496
:102150000091B6011091B701C1E0D0E0CE01CAD222
:10216000F80181938F012196CA32D105B9F778948D
:1021700080911A0181110E94420360E070E088E8BA
:1021800098E00E942B0761E070E086EB9BE00E94E4
:102190002B0740E4242E3324339456EB852E5BE04A
:1021A000952ECC24C394D12C412C512C71E8672E50
:1021B00070E0772E0E9497068091C3019091C40130
:1021C000009751F06091C1017091C2010E943D07DA
:1021D0001092C4011092C3018091BD01811541F19B
:1021E00080E00E94EE01A895F3E4F0BF1F988FB144
:1021F0008038990B91959093BE0187FFF8CF0E948C
:102200001E018CB788608CBF1092E6011092C0014D
:102210001092BF018091BD01811162C022E0209324
:102220000B018CB7877F8CBF0E943C01A89520BE14
:1022300081DC1092B5018091D6019091D701E4E044
:1022400081329E0709F083C0C0E7D0E0FE0184918F
:102250008053803108F06BC0A7DC8CE291E074DC25
:1022600021966C167D0691F79092C4018092C3016D
:102270001092C2011092C1019DCFC0E08C2F0E942C
:10228000EE0183E190E060DC8C2F86950E94EE01E8
:1022900083E190E059DC8FB18038990B9195909350
:1022A000BE0187FD1AC0CF5FC03441F765E181E010
:1022B0000E9423040E945C04C6E98C2F0E94EE0158
:1022C00084E090E041DCCA95C1F733CF8C2F0E94A7
:1022D000EE018DE090E038DCC150C111F7CF29CF7D
:1022E0008091E7018115F9F086B78F79806286BF0A
:1022F00086B7806186BF889586B78F7E86BF8091BE
:10230000BF0181111092BD018091E601811521F07C
:102310003092DB010E9480048091C001811509F494
:1023200079CF60DB77CF86B78F798064E0CF10E01C
:1023300010FB882785F90E94EE0180E190E004DC23
:102340001F5F1931A9F78AE992E0FEDB86CFFEE034
:102350008F339F0709F0D1C0C091A901EC2FF0E0A5
:10236000E45FFE4F87898093BC01C33009F456C0F7
:10237000A8F4C23099F1D58D86E90E94EE0183E080
:1023800090E0C11519F08D2F869590E0DDDB80E09F
:102390000E94EE018D2F90E0D7DB0CCFC53009F005
:1023A00009CFC0912B01CC0FC73908F0C6E9D4E0A2
:1023B0008C2F0E94EE0185E090E0C6DB80912B011E
:1023C0000E94EE0181E490E0BFDBDA9589F780EDB1
:1023D00092E0BADB80E00E94EE01ECCED0910A01DF
:1023E00081E00E94CB05C0E08D2F0E94EE0181E2CA
:1023F00090E0AADB80E00E94EE0182E490E0A4DBA2
:10240000CF5FCA3031F0C53079F785E00E94CB0547
:10241000EBCF80911C018093BC01CCCE0E944C017B
:102420008F73082F10E00E944C0167E02AD17601DB
:1024300002C0EE0CFF1C9A95E2F70E944C0165E089
:1024400020D1E60102C0CC0FDD1F9A95E2F7CE0D38
:10245000DF1D0E944C0190E0BE0133D1C80FD91F8F
:10246000C739D10524F026E9C22F80E0D82F8C2F60
:102470000E94EE01C80168DB7E0133E0F594E79429
:102480003A95E1F7E11002C0EE24E394F12CC80183
:102490005BDB5E01AE18BF08E501B7FE02C0C42DCC
:1024A000D52D8C2F0E94EE010E944C01837081116A
:1024B00007C0C80149DBCE01959587950E94EE01C2
:1024C00022E0A216B1041CF70E944C016DE0D9D0A5
:1024D000E60102C0CC0FDD1F9A95E2F70E944C0185
:1024E0009E012150310990E028233923C20FD31FC8
:1024F00080E00E94EE01CE014FCFE7E08E3A9E07CA
:1025000019F58091A801811155CEC8E086E90E9495
:10251000EE0184E190E018DB80E00E94EE0189E2A8
:1025200090E012DBCA9591F7C8E086E90E94EE01BF
:1025300089E290E009DB80E00E94EE0182E590E014
:1025400003DBCA9591F736CEF9E082369F07B1F4E6
:1025500088EE93E0F9DA8091DA0165E092D054DBFD
:102560008091DA0165E08DD0892F880F4DDB809155
:102570001701811179CE88EE93E00ECF2BE08938D8
:10258000920721F48091D8013FDBF5CFE7E08D344D
:102590009E07B9F48091BE0181110CCE80910A0191
:1025A0000E94EE0184E690E0CFDA80E00E94EE0126
:1025B00080912C0190E068EE73E052D0845691092E
:1025C000EBCE8C59974049F480E03EDB81E03CDB68
:1025D00080E03ADB80ED97E0DFCE8091210181152C
:1025E000A1F18091A501811581F13091BB0120916C
:1025F000A60132130AC0822F0E94EE011092A5019B
:102600008091A7018093BA01D5CD6091A4013217C2
:1026100068F4822F831B861738F033D0830F0E9413
:10262000EE018AE090E0B8CE81E0F8CF862F90E00E
:102630006EE170E015D06091A701621B70E041D09F
:10264000EB0121968FEF830F54CF86B78F7986BF2A
:1026500086B7806186BF889586B78F7E86BFAACDF4
:102660000024552704C0080E591F880F991F009792
:1026700029F076956795B8F37105B9F7802D952FF8
:102680000895992778E0880F991F961708F0961BF0
:10269000881F7A95C9F780950895AA1BBB1B51E145
:1026A00007C0AA1FBB1FA617B70710F0A61BB70BC2
:1026B000881F991F5A95A9F780959095BC01CD0167
:1026C000089597FB072E16F4009406D077FD08D0E6
:1026D000E4DF07FC05D03EF4909581959F4F089567
:1026E000709561957F4F0895EE0FFF1F0590F4914F
:1026F000E02D0994E199FECF1FBA8EBBE09A99278D
:102700008DB30895262FE199FECF1FBA8EBBE09AB4
:1027100081500DB2021639F01CBA2DBB0FB6F894D9
:10272000E29AE19A0FBE0895F894FFCF2B0922098F
:10273000CC08CC084A09CC08CC08CC08CC08CC087A
:10274000CC08CC08CC08CC08CC08CC0815091C094E
:102750002809CC083A099B0FC40F680E680E680E52
:10276000680E680E680E680E680E680E680E680EB9
:10277000680E680E680E820F810E890F970FDE0FAC
:10278000080E180101010004820846020001080831
:1027900008828228020703010001000000010000F6
:1027A000010104000000000000294332020732004A
:1027B00013190100010E01110114010201000000B2
:1027C0000000000001000000000000000001000007
:1027D0009101A502AF03B904C305CD06DC07FF07CD
:1027E00041026E02C201EC01C801EC01CE01EC0114
:1027F000D401EC01DA01EC01E001EC01E601EC01AD
:0428000005040300C8
:00000001FF
